P  CODE 00
P  UNITS CUST 0
P  arrayDim   N
317+VDC             VIA        MD0157PA00X+029370Y+006181X0315Y0000R000S-1616424989
317+VDC             VIA        MD0157PA00X+029370Y+012677X0315Y0000R000S-1616424989
317+VDC             VIA        MD0157PA00X+028898Y+012205X0315Y0000R000S-1616424989
317+VDC             VIA        MD0157PA00X+029370Y+017598X0315Y0000R000S-1616424989
317+VDC             VIA        MD0157PA00X+028898Y+004764X0315Y0000R000S-1616424989
317+VDC             VIA        MD0157PA00X+021752Y+010394X0315Y0000R000S-1616424989
317+VDC             VIA        MD0157PA00X+028898Y+012677X0315Y0000R000S-1616424989
317+VDC             VIA        MD0157PA00X+028898Y+005236X0315Y0000R000S-1616424989
317+VDC             VIA        MD0157PA00X+031112Y+020728X0315Y0000R000S-1616424989
317+VDC             VIA        MD0157PA00X+028553Y+020728X0315Y0000R000S-1616424989
317+VDC             VIA        MD0157PA00X+029370Y+013140X0315Y0000R000S-1616424989
317+VDC             VIA        MD0157PA00X+028898Y+005709X0315Y0000R000S-1616424989
317+VDC             VIA        MD0157PA00X+028898Y+018071X0315Y0000R000S-1616424989
317+VDC             VIA        MD0157PA00X+029370Y+018543X0315Y0000R000S-1616424989
317+VDC             VIA        MD0157PA00X+028898Y+011732X0315Y0000R000S-1616424989
317+VDC             VIA        MD0157PA00X+029370Y+019488X0315Y0000R000S-1616424989
317+VDC             VIA        MD0157PA00X+028898Y+019488X0315Y0000R000S-1616424989
317+VDC             VIA        MD0157PA00X+028898Y+006181X0315Y0000R000S-1616424989
317+VDC             VIA        MD0157PA00X+031112Y+022264X0315Y0000R000S-1616424989
317+VDC             VIA        MD0157PA00X+029370Y+004764X0315Y0000R000S-1616424989
317+VDC             VIA        MD0157PA00X+028898Y+017598X0315Y0000R000S-1616424989
317+VDC             VIA        MD0157PA00X+029370Y+018071X0315Y0000R000S-1616424989
317+VDC             VIA        MD0157PA00X+029370Y+011732X0315Y0000R000S-1616424989
317+VDC             VIA        MD0157PA00X+029370Y+006654X0315Y0000R000S-1616424989
317+VDC             VIA        MD0157PA00X+029370Y+012205X0315Y0000R000S-1616424989
317+VDC             VIA        MD0157PA00X+028898Y+006654X0315Y0000R000S-1616424989
317+VDC             VIA        MD0157PA00X+029370Y+005709X0315Y0000R000S-1616424989
317+VDC             VIA        MD0157PA00X+028898Y+018543X0315Y0000R000S-1616424989
317+VDC             VIA        MD0157PA00X+028898Y+011260X0315Y0000R000S-1616424989
317+VDC             VIA        MD0157PA00X+028898Y+019016X0315Y0000R000S-1616424989
317+VDC             VIA        MD0157PA00X+032746Y+020728X0315Y0000R000S-1616424989
317+VDC             VIA        MD0157PA00X+029370Y+019016X0315Y0000R000S-1616424989
317+VDC             VIA        MD0157PA00X+029370Y+005236X0315Y0000R000S-1616424989
317+VDC             VIA        MD0157PA00X+028553Y+022264X0315Y0000R000S-1616424989
317+VDC             VIA        MD0157PA00X+029370Y+011260X0315Y0000R000S-1616424989
317GND              VIA        MD0118PA00X+015738Y+019678X0236Y0000R000S-1616424989
317GND              VIA        MD0118PA00X+002953Y+012795X0236Y0000R000S-1616424989
317GND              VIA        MD0118PA00X+006890Y+015748X0236Y0000R000S-1616424989
317GND              VIA        MD0118PA00X+000000Y+016732X0236Y0000R000S-1616424989
317GND              VIA        MD0118PA00X+032244Y+024360X0236Y0000R000S-1616424989
317GND              VIA        MD0118PA00X+004921Y-000984X0236Y0000R000S-1616424989
317GND              VIA        MD0118PA00X+012795Y+000000X0236Y0000R000S-1616424989
317GND              VIA        MD0118PA00X+012234Y+002195X0236Y0000R000S-1616424989
317GND              VIA        MD0118PA00X+003937Y+017717X0236Y0000R000S-1616424989
317GND              VIA        MD0118PA00X+000984Y+015748X0236Y0000R000S-1616424989
317GND              VIA        MD0118PA00X+026575Y+024606X0236Y0000R000S-1616424989
317GND              VIA        MD0118PA00X+000000Y+007874X0236Y0000R000S-1616424989
317GND              VIA        MD0118PA00X+003937Y+010827X0236Y0000R000S-1616424989
317GND              VIA        MD0118PA00X+012795Y+025591X0236Y0000R000S-1616424989
317GND              VIA        MD0118PA00X+033465Y-000984X0236Y0000R000S-1616424989
317GND              VIA        MD0118PA00X+028543Y+024606X0236Y0000R000S-1616424989
317GND              VIA        MD0118PA00X+025591Y+022638X0236Y0000R000S-1616424989
317GND              VIA        MD0118PA00X+023622Y+021654X0236Y0000R000S-1616424989
317GND              VIA        MD0118PA00X+013780Y+001969X0236Y0000R000S-1616424989
317GND              VIA        MD0118PA00X+011841Y+001083X0236Y0000R000S-1616424989
317GND              VIA        MD0118PA00X+029528Y+024606X0236Y0000R000S-1616424989
317GND              VIA        MD0079PA00X+027371Y+012531X0157Y0000R000S-1616424989
317GND              VIA        MD0118PA00X+017008Y+006594X0236Y0000R000S-1616424989
317GND              VIA        MD0118PA00X+007874Y+020669X0236Y0000R000S-1616424989
317GND              VIA        MD0118PA00X+001969Y+005906X0236Y0000R000S-1616424989
317GND              VIA        MD0118PA00X+014764Y+026575X0236Y0000R000S-1616424989
317GND              VIA        MD0118PA00X+007874Y+021654X0236Y0000R000S-1616424989
317GND              VIA        MD0118PA00X+009843Y+011811X0236Y0000R000S-1616424989
317GND              VIA        MD0118PA00X+015748Y+004921X0236Y0000R000S-1616424989
317GND              VIA        MD0118PA00X+020945Y+023396X0236Y0000R000S-1616424989
317GND              VIA        MD0118PA00X+009941Y+023691X0236Y0000R000S-1616424989
317GND              VIA        MD0118PA00X+010827Y+021654X0236Y0000R000S-1616424989
317GND              VIA        MD0118PA00X+015679Y+025925X0236Y0000R000S-1616424989
317GND              VIA        MD0079PA00X+018434Y+024238X0157Y0000R000S-1616424989
317GND              VIA        MD0118PA00X+026575Y+022638X0236Y0000R000S-1616424989
317GND              VIA        MD0118PA00X+027559Y+024606X0236Y0000R000S-1616424989
317GND              VIA        MD0118PA00X+031496Y+024606X0236Y0000R000S-1616424989
317GND              VIA        MD0118PA00X+011967Y+018844X0236Y0000R000S-1616424989
317GND              VIA        MD0079PA00X+023484Y+005817X0157Y0000R000S-1616424989
317GND              VIA        MD0118PA00X+016732Y+001969X0236Y0000R000S-1616424989
317GND              VIA        MD0118PA00X+011811Y+001969X0236Y0000R000S-1616424989
317GND              VIA        MD0118PA00X+025502Y+009646X0236Y0000R000S-1616424989
317GND              VIA        MD0118PA00X+024606Y+013780X0236Y0000R000S-1616424989
317GND              VIA        MD0118PA00X+025591Y+025591X0236Y0000R000S-1616424989
317GND              VIA        MD0118PA00X+011811Y+014764X0236Y0000R000S-1616424989
317GND              VIA        MD0118PA00X+014764Y+006890X0236Y0000R000S-1616424989
317GND              VIA        MD0079PA00X+015581Y+007116X0157Y0000R000S-1616424989
317GND              VIA        MD0118PA00X+006644Y+004961X0236Y0000R000S-1616424989
317GND              VIA        MD0079PA00X+026722Y+005699X0157Y0000R000S-1616424989
317GND              VIA        MD0118PA00X+011122Y+023691X0236Y0000R000S-1616424989
317GND              VIA        MD0118PA00X+006220Y+002638X0236Y0000R000S-1616424989
317GND              VIA        MD0118PA00X+036417Y+001969X0236Y0000R000S-1616424989
317GND              VIA        MD0118PA00X+001969Y+022638X0236Y0000R000S-1616424989
317GND              VIA        MD0079PA00X+011299Y+008868X0157Y0000R000S-1616424989
317GND              VIA        MD0118PA00X+023622Y+023620X0236Y0000R000S-1616424989
317GND              VIA        MD0118PA00X-000984Y+014764X0236Y0000R000S-1616424989
317GND              VIA        MD0118PA00X+016457Y+017953X0236Y0000R000S-1616424989
317GND              VIA        MD0118PA00X+011811Y+020669X0236Y0000R000S-1616424989
317GND              VIA        MD0118PA00X+036417Y+021654X0236Y0000R000S-1616424989
317GND              VIA        MD0118PA00X+000984Y+017717X0236Y0000R000S-1616424989
317GND              VIA        MD0118PA00X+021654Y+024606X0236Y0000R000S-1616424989
317GND              VIA        MD0118PA00X+008858Y+021654X0236Y0000R000S-1616424989
317GND              VIA        MD0118PA00X+006890Y+013780X0236Y0000R000S-1616424989
317GND              VIA        MD0118PA00X+007874Y+025591X0236Y0000R000S-1616424989
317GND              VIA        MD0079PA00X+019842Y+024022X0157Y0000R000S-1616424989
317GND              VIA        MD0118PA00X+002992Y+016624X0236Y0000R000S-1616424989
317GND              VIA        MD0118PA00X+001969Y+008858X0236Y0000R000S-1616424989
317GND              VIA        MD0118PA00X+005906Y+000984X0236Y0000R000S-1616424989
317GND              VIA        MD0118PA00X+009843Y+015748X0236Y0000R000S-1616424989
317GND              VIA        MD0118PA00X+005906Y+014764X0236Y0000R000S-1616424989
317GND              VIA        MD0118PA00X+023622Y+025591X0236Y0000R000S-1616424989
317GND              VIA        MD0118PA00X+000984Y+008858X0236Y0000R000S-1616424989
317GND              VIA        MD0079PA00X+004027Y+003709X0157Y0000R000S-1616424989
317GND              VIA        MD0118PA00X+034986Y+014720X0236Y0000R000S-1616424989
317GND              VIA        MD0118PA00X+000984Y+016732X0236Y0000R000S-1616424989
317GND              VIA        MD0079PA00X+013898Y+018720X0157Y0000R000S-1616424989
317GND              VIA        MD0118PA00X+012795Y-000984X0236Y0000R000S-1616424989
317GND              VIA        MD0118PA00X+018799Y+019695X0236Y0000R000S-1616424989
317GND              VIA        MD0118PA00X+025787Y+010915X0236Y0000R000S-1616424989
317GND              VIA        MD0118PA00X+020669Y+001969X0236Y0000R000S-1616424989
317GND              VIA        MD0079PA00X+021988Y+009291X0157Y0000R000S-1616424989
317GND              VIA        MD0118PA00X+007874Y+023620X0236Y0000R000S-1616424989
317GND              VIA        MD0118PA00X+006890Y+012795X0236Y0000R000S-1616424989
317GND              VIA        MD0118PA00X+025374Y+016616X0236Y0000R000S-1616424989
317GND              VIA        MD0118PA00X+019365Y+014862X0236Y0000R000S-1616424989
317GND              VIA        MD0079PA00X+010177Y+011896X0157Y0000R000S-1616424989
317GND              VIA        MD0118PA00X+019173Y+012343X0236Y0000R000S-1616424989
317GND              VIA        MD0118PA00X+007874Y+014764X0236Y0000R000S-1616424989
317GND              VIA        MD0118PA00X+007874Y+015748X0236Y0000R000S-1616424989
317GND              VIA        MD0118PA00X+017717Y+002953X0236Y0000R000S-1616424989
317GND              VIA        MD0118PA00X+001969Y+000984X0236Y0000R000S-1616424989
317GND              VIA        MD0118PA00X+025502Y+009227X0236Y0000R000S-1616424989
317GND              VIA        MD0079PA00X+019030Y+008287X0157Y0000R000S-1616424989
317GND              VIA        MD0118PA00X+007146Y+009852X0236Y0000R000S-1616424989
317GND              VIA        MD0079PA00X+022215Y+007106X0157Y0000R000S-1616424989
317GND              VIA        MD0079PA00X+008386Y+007343X0157Y0000R000S-1616424989
317GND              VIA        MD0118PA00X+006890Y+023620X0236Y0000R000S-1616424989
317GND              VIA        MD0118PA00X+025374Y+016195X0236Y0000R000S-1616424989
317GND              VIA        MD0079PA00X+022215Y+007687X0157Y0000R000S-1616424989
317GND              VIA        MD0118PA00X+024074Y+012731X0236Y0000R000S-1616424989
317GND              VIA        MD0118PA00X+006890Y-000984X0236Y0000R000S-1616424989
317GND              VIA        MD0118PA00X+003937Y+025591X0236Y0000R000S-1616424989
317GND              VIA        MD0118PA00X+007874Y+024606X0236Y0000R000S-1616424989
317GND              VIA        MD0118PA00X+009843Y+017717X0236Y0000R000S-1616424989
317GND              VIA        MD0118PA00X+013780Y+026575X0236Y0000R000S-1616424989
317GND              VIA        MD0079PA00X+007510Y+006762X0157Y0000R000S-1616424989
317GND              VIA        MD0118PA00X+024272Y+009508X0236Y0000R000S-1616424989
317GND              VIA        MD0118PA00X+026201Y+010915X0236Y0000R000S-1616424989
317GND              VIA        MD0118PA00X+002953Y+004921X0236Y0000R000S-1616424989
317GND              VIA        MD0079PA00X+017451Y+022707X0157Y0000R000S-1616424989
317GND              VIA        MD0118PA00X+001969Y+021654X0236Y0000R000S-1616424989
317GND              VIA        MD0079PA00X+022234Y+008287X0157Y0000R000S-1616424989
317GND              VIA        MD0118PA00X+023622Y+022638X0236Y0000R000S-1616424989
317GND              VIA        MD0118PA00X+002953Y+021654X0236Y0000R000S-1616424989
317GND              VIA        MD0079PA00X+010691Y+008817X0157Y0000R000S-1616424989
317GND              VIA        MD0118PA00X+032480Y-000984X0236Y0000R000S-1616424989
317GND              VIA        MD0118PA00X-000984Y+001969X0236Y0000R000S-1616424989
317GND              VIA        MD0118PA00X+012795Y+024606X0236Y0000R000S-1616424989
317GND              VIA        MD0118PA00X+020669Y+018701X0236Y0000R000S-1616424989
317GND              VIA        MD0118PA00X+000000Y+002953X0236Y0000R000S-1616424989
317GND              VIA        MD0118PA00X+030512Y+026575X0236Y0000R000S-1616424989
317GND              VIA        MD0118PA00X+035433Y+021654X0236Y0000R000S-1616424989
317GND              VIA        MD0118PA00X+011033Y+002638X0236Y0000R000S-1616424989
317GND              VIA        MD0118PA00X+035433Y+014764X0236Y0000R000S-1616424989
317GND              VIA        MD0118PA00X+025591Y+024606X0236Y0000R000S-1616424989
317GND              VIA        MD0118PA00X+014764Y-000984X0236Y0000R000S-1616424989
317GND              VIA        MD0118PA00X+003937Y+015748X0236Y0000R000S-1616424989
317GND              VIA        MD0118PA00X+004921Y+016732X0236Y0000R000S-1616424989
317GND              VIA        MD0118PA00X+034449Y+020669X0236Y0000R000S-1616424989
317GND              VIA        MD0118PA00X+007874Y+017717X0236Y0000R000S-1616424989
317GND              VIA        MD0118PA00X+003937Y+016732X0236Y0000R000S-1616424989
317GND              VIA        MD0118PA00X+010974Y+014154X0236Y0000R000S-1616424989
317GND              VIA        MD0118PA00X+026614Y+010915X0236Y0000R000S-1616424989
317GND              VIA        MD0118PA00X+031388Y+008071X0236Y0000R000S-1616424989
317GND              VIA        MD0118PA00X+001969Y+015748X0236Y0000R000S-1616424989
317GND              VIA        MD0079PA00X+013671Y+019671X0157Y0000R000S-1616424989
317GND              VIA        MD0118PA00X+000984Y+004921X0236Y0000R000S-1616424989
317GND              VIA        MD0079PA00X+020465Y+006735X0157Y0000R000S-1616424989
317GND              VIA        MD0118PA00X+030512Y-000984X0236Y0000R000S-1616424989
317GND              VIA        MD0118PA00X+000984Y+014764X0236Y0000R000S-1616424989
317GND              VIA        MD0118PA00X+010827Y+022638X0236Y0000R000S-1616424989
317GND              VIA        MD0118PA00X+021654Y+018701X0236Y0000R000S-1616424989
317GND              VIA        MD0118PA00X+002953Y+007874X0236Y0000R000S-1616424989
317GND              VIA        MD0118PA00X+001969Y+016732X0236Y0000R000S-1616424989
317GND              VIA        MD0118PA00X+001969Y+002953X0236Y0000R000S-1616424989
317GND              VIA        MD0118PA00X+002096Y+019980X0236Y0000R000S-1616424989
317GND              VIA        MD0118PA00X+017717Y+020669X0236Y0000R000S-1616424989
317GND              VIA        MD0118PA00X+001969Y+020669X0236Y0000R000S-1616424989
317GND              VIA        MD0118PA00X+020669Y+000000X0236Y0000R000S-1616424989
317GND              VIA        MD0118PA00X+024606Y+022638X0236Y0000R000S-1616424989
317GND              VIA        MD0118PA00X+029528Y+026575X0236Y0000R000S-1616424989
317GND              VIA        MD0118PA00X+019774Y+014862X0236Y0000R000S-1616424989
317GND              VIA        MD0118PA00X+017717Y+001969X0236Y0000R000S-1616424989
317GND              VIA        MD0079PA00X+012433Y+008418X0157Y0000R000S-1616424989
317GND              VIA        MD0079PA00X+033278Y+002275X0157Y0000R000S-1616424989
317GND              VIA        MD0079PA00X+020650Y+009478X0157Y0000R000S-1616424989
317GND              VIA        MD0118PA00X-000984Y+008858X0236Y0000R000S-1616424989
317GND              VIA        MD0079PA00X+007514Y+006368X0157Y0000R000S-1616424989
317GND              VIA        MD0118PA00X-000984Y+015748X0236Y0000R000S-1616424989
317GND              VIA        MD0118PA00X+000000Y+020669X0236Y0000R000S-1616424989
317GND              VIA        MD0118PA00X+034449Y+023620X0236Y0000R000S-1616424989
317GND              VIA        MD0118PA00X+027559Y+025591X0236Y0000R000S-1616424989
317GND              VIA        MD0118PA00X+008858Y+024606X0236Y0000R000S-1616424989
317GND              VIA        MD0118PA00X+005197Y+012707X0236Y0000R000S-1616424989
317GND              VIA        MD0118PA00X+020669Y+017717X0236Y0000R000S-1616424989
317GND              VIA        MD0118PA00X+005246Y+001181X0236Y0000R000S-1616424989
317GND              VIA        MD0118PA00X+021811Y+018091X0236Y0000R000S-1616424989
317GND              VIA        MD0118PA00X+018701Y+021654X0236Y0000R000S-1616424989
317GND              VIA        MD0118PA00X+007864Y+019678X0236Y0000R000S-1616424989
317GND              VIA        MD0118PA00X+022638Y+023620X0236Y0000R000S-1616424989
317GND              VIA        MD0118PA00X+001969Y+023620X0236Y0000R000S-1616424989
317GND              VIA        MD0118PA00X+006890Y+022638X0236Y0000R000S-1616424989
317GND              VIA        MD0118PA00X+031496Y+026575X0236Y0000R000S-1616424989
317GND              VIA        MD0118PA00X+017717Y+000984X0236Y0000R000S-1616424989
317GND              VIA        MD0118PA00X+018957Y+015837X0236Y0000R000S-1616424989
317GND              VIA        MD0118PA00X+013780Y+007874X0236Y0000R000S-1616424989
317GND              VIA        MD0118PA00X+003937Y+020669X0236Y0000R000S-1616424989
317GND              VIA        MD0118PA00X+021654Y-000984X0236Y0000R000S-1616424989
317GND              VIA        MD0118PA00X+026575Y+000000X0236Y0000R000S-1616424989
317GND              VIA        MD0118PA00X+013780Y+024606X0236Y0000R000S-1616424989
317GND              VIA        MD0118PA00X+036417Y+023620X0236Y0000R000S-1616424989
317GND              VIA        MD0118PA00X+004921Y+005906X0236Y0000R000S-1616424989
317GND              VIA        MD0079PA00X+021890Y+005886X0157Y0000R000S-1616424989
317GND              VIA        MD0118PA00X+021654Y+022638X0236Y0000R000S-1616424989
317GND              VIA        MD0118PA00X+007904Y+002638X0236Y0000R000S-1616424989
317GND              VIA        MD0118PA00X+006890Y+000984X0236Y0000R000S-1616424989
317GND              VIA        MD0118PA00X+013780Y-000984X0236Y0000R000S-1616424989
317GND              VIA        MD0118PA00X+021634Y+004547X0236Y0000R000S-1616424989
317GND              VIA        MD0118PA00X+003937Y+012795X0236Y0000R000S-1616424989
317GND              VIA        MD0079PA00X+009045Y+006978X0157Y0000R000S-1616424989
317GND              VIA        MD0079PA00X+022421Y+025925X0157Y0000R000S-1616424989
317GND              VIA        MD0079PA00X+018858Y+022707X0157Y0000R000S-1616424989
317GND              VIA        MD0118PA00X+014469Y+007392X0236Y0000R000S-1616424989
317GND              VIA        MD0118PA00X+016959Y+023150X0236Y0000R000S-1616424989
317GND              VIA        MD0079PA00X+011575Y+005797X0157Y0000R000S-1616424989
317GND              VIA        MD0118PA00X+003937Y+024606X0236Y0000R000S-1616424989
317GND              VIA        MD0118PA00X+004921Y+013780X0236Y0000R000S-1616424989
317GND              VIA        MD0118PA00X+016732Y+024606X0236Y0000R000S-1616424989
317GND              VIA        MD0118PA00X+023622Y+020669X0236Y0000R000S-1616424989
317GND              VIA        MD0118PA00X+024606Y+016732X0236Y0000R000S-1616424989
317GND              VIA        MD0118PA00X+015748Y+000984X0236Y0000R000S-1616424989
317GND              VIA        MD0079PA00X+022166Y+008855X0157Y0000R000S-1616424989
317GND              VIA        MD0118PA00X+002953Y+005906X0236Y0000R000S-1616424989
317GND              VIA        MD0118PA00X+028543Y+026575X0236Y0000R000S-1616424989
317GND              VIA        MD0118PA00X+001969Y+001969X0236Y0000R000S-1616424989
317GND              VIA        MD0118PA00X+013780Y+000984X0236Y0000R000S-1616424989
317GND              VIA        MD0118PA00X+024606Y+023620X0236Y0000R000S-1616424989
317GND              VIA        MD0118PA00X+004921Y+000000X0236Y0000R000S-1616424989
317GND              VIA        MD0118PA00X+003937Y+013780X0236Y0000R000S-1616424989
317GND              VIA        MD0118PA00X+012795Y+023620X0236Y0000R000S-1616424989
317GND              VIA        MD0118PA00X+006890Y+025591X0236Y0000R000S-1616424989
317GND              VIA        MD0118PA00X+011801Y+019678X0236Y0000R000S-1616424989
317GND              VIA        MD0118PA00X+007874Y+026575X0236Y0000R000S-1616424989
317GND              VIA        MD0118PA00X+007874Y+018701X0236Y0000R000S-1616424989
317GND              VIA        MD0118PA00X+003258Y+023809X0236Y0000R000S-1616424989
317GND              VIA        MD0118PA00X+025374Y+017037X0236Y0000R000S-1616424989
317GND              VIA        MD0118PA00X+016732Y+000984X0236Y0000R000S-1616424989
317GND              VIA        MD0079PA00X+011978Y+008927X0157Y0000R000S-1616424989
317GND              VIA        MD0118PA00X+003937Y+014764X0236Y0000R000S-1616424989
317GND              VIA        MD0118PA00X+036417Y+007874X0236Y0000R000S-1616424989
317GND              VIA        MD0079PA00X+014665Y+008642X0157Y0000R000S-1616424989
317GND              VIA        MD0118PA00X+023356Y+011654X0236Y0000R000S-1616424989
317GND              VIA        MD0118PA00X+014764Y+005906X0236Y0000R000S-1616424989
317GND              VIA        MD0118PA00X+000000Y+003937X0236Y0000R000S-1616424989
317GND              VIA        MD0118PA00X+024606Y+021654X0236Y0000R000S-1616424989
317GND              VIA        MD0118PA00X+005423Y+020492X0236Y0000R000S-1616424989
317GND              VIA        MD0118PA00X+017717Y-000984X0236Y0000R000S-1616424989
317GND              VIA        MD0118PA00X+011811Y-000984X0236Y0000R000S-1616424989
317GND              VIA        MD0118PA00X+026186Y+017264X0236Y0000R000S-1616424989
317GND              VIA        MD0118PA00X+016732Y+020669X0236Y0000R000S-1616424989
317GND              VIA        MD0079PA00X+020751Y+006491X0157Y0000R000S-1616424989
317GND              VIA        MD0118PA00X+000984Y+021654X0236Y0000R000S-1616424989
317GND              VIA        MD0118PA00X+030512Y+024606X0236Y0000R000S-1616424989
317GND              VIA        MD0118PA00X+000984Y+002953X0236Y0000R000S-1616424989
317GND              VIA        MD0118PA00X+003868Y+013189X0236Y0000R000S-1616424989
317GND              VIA        MD0118PA00X+006703Y+008701X0236Y0000R000S-1616424989
317GND              VIA        MD0118PA00X+000984Y+022638X0236Y0000R000S-1616424989
317GND              VIA        MD0118PA00X+002953Y+024606X0236Y0000R000S-1616424989
317GND              VIA        MD0118PA00X+024606Y+014764X0236Y0000R000S-1616424989
317GND              VIA        MD0118PA00X+015797Y-000039X0236Y0000R000S-1616424989
317GND              VIA        MD0118PA00X+026575Y-000984X0236Y0000R000S-1616424989
317GND              VIA        MD0079PA00X+025974Y+005305X0157Y0000R000S-1616424989
317GND              VIA        MD0118PA00X+019685Y+002953X0236Y0000R000S-1616424989
317GND              VIA        MD0118PA00X+001969Y+024606X0236Y0000R000S-1616424989
317GND              VIA        MD0118PA00X+007953Y+012441X0236Y0000R000S-1616424989
317GND              VIA        MD0118PA00X+006890Y+026575X0236Y0000R000S-1616424989
317GND              VIA        MD0118PA00X+009843Y+014764X0236Y0000R000S-1616424989
317GND              VIA        MD0118PA00X+000984Y+001969X0236Y0000R000S-1616424989
317GND              VIA        MD0079PA00X+009469Y+008425X0157Y0000R000S-1616424989
317GND              VIA        MD0118PA00X+025591Y-000984X0236Y0000R000S-1616424989
317GND              VIA        MD0118PA00X+006890Y+014764X0236Y0000R000S-1616424989
317GND              VIA        MD0118PA00X+024606Y+020669X0236Y0000R000S-1616424989
317GND              VIA        MD0118PA00X+023622Y+016732X0236Y0000R000S-1616424989
317GND              VIA        MD0118PA00X+021654Y+008858X0236Y0000R000S-1616424989
317GND              VIA        MD0118PA00X+000984Y+020669X0236Y0000R000S-1616424989
317GND              VIA        MD0118PA00X+004921Y+017717X0236Y0000R000S-1616424989
317GND              VIA        MD0118PA00X+028543Y+023620X0236Y0000R000S-1616424989
317GND              VIA        MD0118PA00X+008858Y+025591X0236Y0000R000S-1616424989
317GND              VIA        MD0118PA00X+031496Y+000000X0236Y0000R000S-1616424989
317GND              VIA        MD0118PA00X+012795Y+017717X0236Y0000R000S-1616424989
317GND              VIA        MD0118PA00X+016732Y+000000X0236Y0000R000S-1616424989
317GND              VIA        MD0118PA00X+003937Y+006890X0236Y0000R000S-1616424989
317GND              VIA        MD0118PA00X+006703Y+008100X0236Y0000R000S-1616424989
317GND              VIA        MD0079PA00X+019892Y+002293X0157Y0000R000S-1616424989
317GND              VIA        MD0118PA00X+012254Y+004951X0236Y0000R000S-1616424989
317GND              VIA        MD0118PA00X+000000Y+005906X0236Y0000R000S-1616424989
317GND              VIA        MD0118PA00X+022992Y+018110X0236Y0000R000S-1616424989
317GND              VIA        MD0118PA00X+031496Y+025591X0236Y0000R000S-1616424989
317GND              VIA        MD0118PA00X+025591Y+013780X0236Y0000R000S-1616424989
317GND              VIA        MD0118PA00X+000984Y+023620X0236Y0000R000S-1616424989
317GND              VIA        MD0118PA00X+009961Y+004961X0236Y0000R000S-1616424989
317GND              VIA        MD0118PA00X+022530Y+021457X0236Y0000R000S-1616424989
317GND              VIA        MD0118PA00X+005197Y+009833X0236Y0000R000S-1616424989
317GND              VIA        MD0118PA00X+018957Y+014862X0236Y0000R000S-1616424989
317GND              VIA        MD0118PA00X+018701Y-000984X0236Y0000R000S-1616424989
317GND              VIA        MD0118PA00X+017726Y+012362X0236Y0000R000S-1616424989
317GND              VIA        MD0118PA00X+020669Y+015748X0236Y0000R000S-1616424989
317GND              VIA        MD0118PA00X+019774Y+015837X0236Y0000R000S-1616424989
317GND              VIA        MD0118PA00X+025591Y+026575X0236Y0000R000S-1616424989
317GND              VIA        MD0118PA00X+021654Y+000000X0236Y0000R000S-1616424989
317GND              VIA        MD0118PA00X+012795Y+002953X0236Y0000R000S-1616424989
317GND              VIA        MD0118PA00X+003937Y+011811X0236Y0000R000S-1616424989
317GND              VIA        MD0118PA00X+014606Y+012638X0236Y0000R000S-1616424989
317GND              VIA        MD0118PA00X+012795Y+001969X0236Y0000R000S-1616424989
317GND              VIA        MD0118PA00X+024606Y+025591X0236Y0000R000S-1616424989
317GND              VIA        MD0118PA00X+025374Y+015774X0236Y0000R000S-1616424989
317GND              VIA        MD0079PA00X+013287Y+008238X0157Y0000R000S-1616424989
317GND              VIA        MD0118PA00X+002736Y+025591X0236Y0000R000S-1616424989
317GND              VIA        MD0118PA00X+015748Y-000984X0236Y0000R000S-1616424989
317GND              VIA        MD0079PA00X+019301Y+024276X0157Y0000R000S-1616424989
317GND              VIA        MD0118PA00X+028543Y+025591X0236Y0000R000S-1616424989
317GND              VIA        MD0118PA00X+023622Y+024606X0236Y0000R000S-1616424989
317GND              VIA        MD0118PA00X+002953Y+011811X0236Y0000R000S-1616424989
317GND              VIA        MD0079PA00X+011368Y+006348X0157Y0000R000S-1616424989
317GND              VIA        MD0118PA00X+008858Y+001969X0236Y0000R000S-1616424989
317GND              VIA        MD0118PA00X+002057Y+012598X0236Y0000R000S-1616424989
317GND              VIA        MD0118PA00X+021654Y+026575X0236Y0000R000S-1616424989
317GND              VIA        MD0118PA00X+011811Y+010827X0236Y0000R000S-1616424989
317GND              VIA        MD0118PA00X+029528Y+023620X0236Y0000R000S-1616424989
317GND              VIA        MD0118PA00X-000984Y+023620X0236Y0000R000S-1616424989
317GND              VIA        MD0118PA00X+022638Y-000984X0236Y0000R000S-1616424989
317GND              VIA        MD0118PA00X+006890Y+024606X0236Y0000R000S-1616424989
317GND              VIA        MD0118PA00X+005217Y+023593X0236Y0000R000S-1616424989
317GND              VIA        MD0118PA00X+013780Y+023620X0236Y0000R000S-1616424989
317GND              VIA        MD0118PA00X+010827Y+016732X0236Y0000R000S-1616424989
317GND              VIA        MD0118PA00X+029528Y-000984X0236Y0000R000S-1616424989
317GND              VIA        MD0079PA00X+020659Y+005669X0157Y0000R000S-1616424989
317GND              VIA        MD0118PA00X+004921Y+001969X0236Y0000R000S-1616424989
317GND              VIA        MD0079PA00X+026795Y+012451X0157Y0000R000S-1616424989
317GND              VIA        MD0118PA00X+007953Y+013622X0236Y0000R000S-1616424989
317GND              VIA        MD0118PA00X+019365Y+015364X0236Y0000R000S-1616424989
317GND              VIA        MD0118PA00X+005512Y+014972X0236Y0000R000S-1616424989
317GND              VIA        MD0118PA00X+000000Y+017717X0236Y0000R000S-1616424989
317GND              VIA        MD0118PA00X+002953Y+020669X0236Y0000R000S-1616424989
317GND              VIA        MD0118PA00X+014764Y+000984X0236Y0000R000S-1616424989
317GND              VIA        MD0118PA00X+014764Y+015748X0236Y0000R000S-1616424989
317GND              VIA        MD0118PA00X+025502Y+010482X0236Y0000R000S-1616424989
317GND              VIA        MD0118PA00X+003110Y+019094X0236Y0000R000S-1616424989
317GND              VIA        MD0118PA00X+036417Y+022638X0236Y0000R000S-1616424989
317GND              VIA        MD0079PA00X+019315Y+009075X0157Y0000R000S-1616424989
317GND              VIA        MD0118PA00X+019685Y-000984X0236Y0000R000S-1616424989
317GND              VIA        MD0118PA00X+033465Y+024665X0236Y0000R000S-1616424989
317GND              VIA        MD0079PA00X+027227Y+006880X0157Y0000R000S-1616424989
317GND              VIA        MD0118PA00X+035433Y+020669X0236Y0000R000S-1616424989
317GND              VIA        MD0079PA00X+027854Y+012766X0157Y0000R000S-1616424989
317GND              VIA        MD0118PA00X+032480Y+026575X0236Y0000R000S-1616424989
317GND              VIA        MD0118PA00X+009843Y+020669X0236Y0000R000S-1616424989
317GND              VIA        MD0118PA00X+035433Y+022638X0236Y0000R000S-1616424989
317GND              VIA        MD0118PA00X+031388Y+014370X0236Y0000R000S-1616424989
317GND              VIA        MD0118PA00X+031270Y+001772X0236Y0000R000S-1616424989
317GND              VIA        MD0079PA00X+011683Y+009222X0157Y0000R000S-1616424989
317GND              VIA        MD0079PA00X+005877Y+005560X0157Y0000R000S-1616424989
317GND              VIA        MD0118PA00X+025591Y+021654X0236Y0000R000S-1616424989
317GND              VIA        MD0118PA00X+011811Y+011811X0236Y0000R000S-1616424989
317GND              VIA        MD0118PA00X+021654Y+007874X0236Y0000R000S-1616424989
317GND              VIA        MD0118PA00X+005906Y+000000X0236Y0000R000S-1616424989
317GND              VIA        MD0118PA00X+013937Y+013228X0236Y0000R000S-1616424989
317GND              VIA        MD0118PA00X+028543Y+000000X0236Y0000R000S-1616424989
317GND              VIA        MD0118PA00X+015748Y+021654X0236Y0000R000S-1616424989
317GND              VIA        MD0118PA00X+036417Y+014764X0236Y0000R000S-1616424989
317GND              VIA        MD0118PA00X+033465Y+026575X0236Y0000R000S-1616424989
317GND              VIA        MD0118PA00X+019921Y+012096X0236Y0000R000S-1616424989
317GND              VIA        MD0118PA00X+014469Y+006644X0236Y0000R000S-1616424989
317GND              VIA        MD0118PA00X+006890Y+017717X0236Y0000R000S-1616424989
317GND              VIA        MD0118PA00X+026624Y+017264X0236Y0000R000S-1616424989
317GND              VIA        MD0118PA00X+021634Y+003366X0236Y0000R000S-1616424989
317GND              VIA        MD0118PA00X+007953Y+013051X0236Y0000R000S-1616424989
317GND              VIA        MD0079PA00X+008657Y+009429X0157Y0000R000S-1616424989
317GND              VIA        MD0118PA00X+013780Y+000000X0236Y0000R000S-1616424989
317GND              VIA        MD0079PA00X+012913Y+009232X0157Y0000R000S-1616424989
317GND              VIA        MD0118PA00X+000984Y+007874X0236Y0000R000S-1616424989
317GND              VIA        MD0118PA00X+019365Y+015837X0236Y0000R000S-1616424989
317GND              VIA        MD0118PA00X+012795Y+011811X0236Y0000R000S-1616424989
317GND              VIA        MD0118PA00X+008858Y+022638X0236Y0000R000S-1616424989
317GND              VIA        MD0118PA00X+007874Y+016732X0236Y0000R000S-1616424989
317GND              VIA        MD0079PA00X+027333Y+017274X0157Y0000R000S-1616424989
317GND              VIA        MD0118PA00X+008593Y+004990X0236Y0000R000S-1616424989
317GND              VIA        MD0118PA00X+002953Y+006890X0236Y0000R000S-1616424989
317GND              VIA        MD0118PA00X+021654Y+015748X0236Y0000R000S-1616424989
317GND              VIA        MD0118PA00X+017717Y+000000X0236Y0000R000S-1616424989
317GND              VIA        MD0079PA00X+024242Y+005679X0157Y0000R000S-1616424989
317GND              VIA        MD0079PA00X+007916Y+006368X0157Y0000R000S-1616424989
317GND              VIA        MD0118PA00X+030512Y+000000X0236Y0000R000S-1616424989
317GND              VIA        MD0118PA00X+000000Y+008858X0236Y0000R000S-1616424989
317GND              VIA        MD0118PA00X+020669Y-000984X0236Y0000R000S-1616424989
317GND              VIA        MD0118PA00X+022638Y+022638X0236Y0000R000S-1616424989
317GND              VIA        MD0118PA00X+016722Y+019678X0236Y0000R000S-1616424989
317GND              VIA        MD0118PA00X+001969Y+014764X0236Y0000R000S-1616424989
317GND              VIA        MD0118PA00X+004921Y+015748X0236Y0000R000S-1616424989
317GND              VIA        MD0118PA00X+017343Y+011230X0236Y0000R000S-1616424989
317GND              VIA        MD0118PA00X+029528Y+000000X0236Y0000R000S-1616424989
317GND              VIA        MD0118PA00X+014813Y-000039X0236Y0000R000S-1616424989
317GND              VIA        MD0079PA00X+008337Y+008051X0157Y0000R000S-1616424989
317GND              VIA        MD0118PA00X+025502Y+008809X0236Y0000R000S-1616424989
317GND              VIA        MD0118PA00X+015748Y+018701X0236Y0000R000S-1616424989
317GND              VIA        MD0079PA00X+016260Y+010344X0157Y0000R000S-1616424989
317GND              VIA        MD0118PA00X+029528Y+025591X0236Y0000R000S-1616424989
317GND              VIA        MD0118PA00X+026575Y+025591X0236Y0000R000S-1616424989
317GND              VIA        MD0079PA00X+019065Y+008681X0157Y0000R000S-1616424989
317GND              VIA        MD0118PA00X+004921Y+020669X0236Y0000R000S-1616424989
317GND              VIA        MD0118PA00X+015748Y+023620X0236Y0000R000S-1616424989
317GND              VIA        MD0118PA00X+005906Y+017717X0236Y0000R000S-1616424989
317GND              VIA        MD0118PA00X+008858Y+026575X0236Y0000R000S-1616424989
317GND              VIA        MD0118PA00X+000000Y+014764X0236Y0000R000S-1616424989
317GND              VIA        MD0118PA00X+013780Y+015748X0236Y0000R000S-1616424989
317GND              VIA        MD0118PA00X+005906Y+021654X0236Y0000R000S-1616424989
317GND              VIA        MD0118PA00X+004921Y+011811X0236Y0000R000S-1616424989
317GND              VIA        MD0118PA00X+001969Y+007874X0236Y0000R000S-1616424989
317GND              VIA        MD0118PA00X+007874Y+022638X0236Y0000R000S-1616424989
317GND              VIA        MD0079PA00X+014056Y+019065X0157Y0000R000S-1616424989
317GND              VIA        MD0079PA00X+027264Y+007244X0157Y0000R000S-1616424989
317GND              VIA        MD0118PA00X+005906Y+004921X0236Y0000R000S-1616424989
317GND              VIA        MD0118PA00X+003937Y+026575X0236Y0000R000S-1616424989
317GND              VIA        MD0079PA00X+010079Y+009734X0157Y0000R000S-1616424989
317GND              VIA        MD0079PA00X+026683Y+006378X0157Y0000R000S-1616424989
317GND              VIA        MD0079PA00X+010079Y+008750X0157Y0000R000S-1616424989
317GND              VIA        MD0118PA00X+009843Y+022638X0236Y0000R000S-1616424989
317GND              VIA        MD0079PA00X+007933Y+006762X0157Y0000R000S-1616424989
317GND              VIA        MD0118PA00X+022638Y+015748X0236Y0000R000S-1616424989
317GND              VIA        MD0118PA00X+034872Y+002057X0236Y0000R000S-1616424989
317GND              VIA        MD0118PA00X+013780Y+002953X0236Y0000R000S-1616424989
317GND              VIA        MD0118PA00X+012795Y+000984X0236Y0000R000S-1616424989
317GND              VIA        MD0118PA00X+036417Y+020669X0236Y0000R000S-1616424989
317GND              VIA        MD0118PA00X+008858Y+023622X0236Y0000R000S-1616424989
317GND              VIA        MD0118PA00X+019685Y+000000X0236Y0000R000S-1616424989
317GND              VIA        MD0118PA00X+002057Y+009646X0236Y0000R000S-1616424989
317GND              VIA        MD0118PA00X+016732Y+023620X0236Y0000R000S-1616424989
317GND              VIA        MD0118PA00X-000984Y+021654X0236Y0000R000S-1616424989
317GND              VIA        MD0118PA00X+018799Y+019114X0236Y0000R000S-1616424989
317GND              VIA        MD0118PA00X+002953Y+026575X0236Y0000R000S-1616424989
317GND              VIA        MD0118PA00X+005906Y+001969X0236Y0000R000S-1616424989
317GND              VIA        MD0118PA00X+034449Y+022638X0236Y0000R000S-1616424989
317GND              VIA        MD0079PA00X+020600Y+017303X0157Y0000R000S-1616424989
317GND              VIA        MD0118PA00X+014764Y+025591X0236Y0000R000S-1616424989
317GND              VIA        MD0079PA00X+027382Y+011096X0157Y0000R000S-1616424989
317GND              VIA        MD0118PA00X+032628Y+025591X0236Y0000R000S-1616424989
317GND              VIA        MD0118PA00X+027559Y+023620X0236Y0000R000S-1616424989
317GND              VIA        MD0118PA00X+023622Y-000984X0236Y0000R000S-1616424989
317GND              VIA        MD0118PA00X+005906Y+022638X0236Y0000R000S-1616424989
317GND              VIA        MD0079PA00X+022264Y+005364X0157Y0000R000S-1616424989
317GND              VIA        MD0118PA00X+012795Y+020669X0236Y0000R000S-1616424989
317GND              VIA        MD0118PA00X+003937Y+004921X0236Y0000R000S-1616424989
317GND              VIA        MD0118PA00X+006890Y+000000X0236Y0000R000S-1616424989
317GND              VIA        MD0118PA00X+004921Y+021654X0236Y0000R000S-1616424989
317GND              VIA        MD0118PA00X+027559Y-000984X0236Y0000R000S-1616424989
317GND              VIA        MD0118PA00X+025374Y+015352X0236Y0000R000S-1616424989
317GND              VIA        MD0118PA00X+011811Y+021654X0236Y0000R000S-1616424989
317GND              VIA        MD0118PA00X+016732Y+002953X0236Y0000R000S-1616424989
317GND              VIA        MD0079PA00X+027303Y+013829X0157Y0000R000S-1616424989
317GND              VIA        MD0118PA00X+025374Y+014931X0236Y0000R000S-1616424989
317GND              VIA        MD0118PA00X+000000Y+022638X0236Y0000R000S-1616424989
317GND              VIA        MD0118PA00X+005472Y+002451X0236Y0000R000S-1616424989
317GND              VIA        MD0079PA00X+018179Y+022057X0157Y0000R000S-1616424989
317GND              VIA        MD0079PA00X+011046Y+008455X0157Y0000R000S-1616424989
317GND              VIA        MD0118PA00X+001969Y+017717X0236Y0000R000S-1616424989
317GND              VIA        MD0118PA00X+011811Y+009843X0236Y0000R000S-1616424989
317GND              VIA        MD0118PA00X+005906Y+008858X0236Y0000R000S-1616424989
317GND              VIA        MD0118PA00X+005906Y+020669X0236Y0000R000S-1616424989
317GND              VIA        MD0118PA00X-000984Y+022638X0236Y0000R000S-1616424989
317GND              VIA        MD0118PA00X+000984Y+003937X0236Y0000R000S-1616424989
317GND              VIA        MD0118PA00X+014764Y+009843X0236Y0000R000S-1616424989
317GND              VIA        MD0118PA00X+027559Y+000000X0236Y0000R000S-1616424989
317GND              VIA        MD0118PA00X+023622Y+001969X0236Y0000R000S-1616424989
317GND              VIA        MD0118PA00X+019774Y+015364X0236Y0000R000S-1616424989
317GND              VIA        MD0118PA00X+019368Y+004555X0236Y0000R000S-1616424989
317GND              VIA        MD0118PA00X+001969Y+026575X0236Y0000R000S-1616424989
317GND              VIA        MD0118PA00X+026575Y+023620X0236Y0000R000S-1616424989
317GND              VIA        MD0118PA00X+005423Y+017707X0236Y0000R000S-1616424989
317GND              VIA        MD0118PA00X+009843Y+016732X0236Y0000R000S-1616424989
317GND              VIA        MD0079PA00X+020478Y+007250X0157Y0000R000S-1616424989
317GND              VIA        MD0118PA00X+024606Y+026575X0236Y0000R000S-1616424989
317GND              VIA        MD0118PA00X+000000Y+021654X0236Y0000R000S-1616424989
317GND              VIA        MD0118PA00X+016339Y+017470X0236Y0000R000S-1616424989
317GND              VIA        MD0118PA00X+025748Y+017264X0236Y0000R000S-1616424989
317GND              VIA        MD0118PA00X+018701Y+001969X0236Y0000R000S-1616424989
317GND              VIA        MD0118PA00X+001969Y-000984X0236Y0000R000S-1616424989
317GND              VIA        MD0079PA00X+019272Y+007244X0157Y0000R000S-1616424989
317GND              VIA        MD0118PA00X+032687Y+000010X0236Y0000R000S-1616424989
317GND              VIA        MD0118PA00X+005906Y-000984X0236Y0000R000S-1616424989
317GND              VIA        MD0118PA00X+002953Y+017717X0236Y0000R000S-1616424989
317GND              VIA        MD0118PA00X+020669Y+021654X0236Y0000R000S-1616424989
317GND              VIA        MD0079PA00X+013583Y+023179X0157Y0000R000S-1616424989
317GND              VIA        MD0118PA00X+018957Y+015364X0236Y0000R000S-1616424989
317GND              VIA        MD0118PA00X+015748Y+024606X0236Y0000R000S-1616424989
317GND              VIA        MD0118PA00X+001969Y+003937X0236Y0000R000S-1616424989
317GND              VIA        MD0118PA00X+000000Y+015748X0236Y0000R000S-1616424989
317GND              VIA        MD0118PA00X+012795Y+022638X0236Y0000R000S-1616424989
317GND              VIA        MD0118PA00X+001969Y+006890X0236Y0000R000S-1616424989
317GND              VIA        MD0118PA00X+030512Y+025591X0236Y0000R000S-1616424989
317GND              VIA        MD0118PA00X+018701Y+000984X0236Y0000R000S-1616424989
317GND              VIA        MD0079PA00X+002953Y+022244X0157Y0000R000S-1616424989
317GND              VIA        MD0118PA00X+006890Y+020669X0236Y0000R000S-1616424989
317GND              VIA        MD0118PA00X+028543Y-000984X0236Y0000R000S-1616424989
317GND              VIA        MD0118PA00X+015748Y+026575X0236Y0000R000S-1616424989
317GND              VIA        MD0079PA00X+024990Y+012441X0157Y0000R000S-1616424989
317GND              VIA        MD0118PA00X+018701Y+000000X0236Y0000R000S-1616424989
317GND              VIA        MD0079PA00X+009016Y+017205X0157Y0000R000S-1616424989
317GND              VIA        MD0118PA00X+011811Y+017717X0236Y0000R000S-1616424989
317GND              VIA        MD0118PA00X+016732Y-000984X0236Y0000R000S-1616424989
317GND              VIA        MD0079PA00X+009341Y+021063X0157Y0000R000S-1616424989
317GND              VIA        MD0118PA00X+034449Y+021654X0236Y0000R000S-1616424989
317GND              VIA        MD0118PA00X+001969Y+010827X0236Y0000R000S-1616424989
317GND              VIA        MD0118PA00X+025591Y+000000X0236Y0000R000S-1616424989
317GND              VIA        MD0118PA00X+000984Y+006890X0236Y0000R000S-1616424989
317GND              VIA        MD0118PA00X+035433Y+007874X0236Y0000R000S-1616424989
317GND              VIA        MD0079PA00X+010098Y+009055X0157Y0000R000S-1616424989
317GND              VIA        MD0118PA00X+033465Y+025591X0236Y0000R000S-1616424989
317GND              VIA        MD0118PA00X+021634Y+003957X0236Y0000R000S-1616424989
317GND              VIA        MD0118PA00X+021654Y+021654X0236Y0000R000S-1616424989
317GND              VIA        MD0118PA00X+006890Y+016732X0236Y0000R000S-1616424989
317GND              VIA        MD0118PA00X+017028Y+005984X0236Y0000R000S-1616424989
317GND              VIA        MD0079PA00X+015118Y+007953X0157Y0000R000S-1616424989
317GND              VIA        MD0118PA00X+026575Y+026575X0236Y0000R000S-1616424989
317GND              VIA        MD0118PA00X+017067Y+008563X0236Y0000R000S-1616424989
317GND              VIA        MD0118PA00X+020787Y+024331X0236Y0000R000S-1616424989
317GND              VIA        MD0118PA00X+027559Y+022638X0236Y0000R000S-1616424989
317GND              VIA        MD0118PA00X+006890Y+021654X0236Y0000R000S-1616424989
317GND              VIA        MD0079PA00X+025787Y+005807X0157Y0000R000S-1616424989
317GND              VIA        MD0118PA00X+011811Y+016732X0236Y0000R000S-1616424989
317GND              VIA        MD0118PA00X+022638Y+000000X0236Y0000R000S-1616424989
317GND              VIA        MD0118PA00X+021654Y+006890X0236Y0000R000S-1616424989
317GND              VIA        MD0118PA00X+017096Y+007874X0236Y0000R000S-1616424989
317GND              VIA        MD0118PA00X+016732Y+022638X0236Y0000R000S-1616424989
317GND              VIA        MD0118PA00X+000000Y+004921X0236Y0000R000S-1616424989
317GND              VIA        MD0118PA00X+003937Y+005906X0236Y0000R000S-1616424989
317GND              VIA        MD0118PA00X+028711Y+003947X0236Y0000R000S-1616424989
317GND              VIA        MD0118PA00X+034988Y+008361X0236Y0000R000S-1616424989
317GND              VIA        MD0079PA00X+021594Y+005246X0157Y0000R000S-1616424989
317GND              VIA        MD0118PA00X+015748Y+017470X0236Y0000R000S-1616424989
317GND              VIA        MD0079PA00X+010177Y+008356X0157Y0000R000S-1616424989
317GND              VIA        MD0118PA00X+025591Y+020669X0236Y0000R000S-1616424989
317GND              VIA        MD0118PA00X+004921Y+010827X0236Y0000R000S-1616424989
317GND              VIA        MD0118PA00X+031496Y-000984X0236Y0000R000S-1616424989
317GND              VIA        MD0118PA00X+027559Y+026575X0236Y0000R000S-1616424989
317GND              VIA        MD0079PA00X+014409Y+009547X0157Y0000R000S-1616424989
317GND              VIA        MD0118PA00X+006890Y+001969X0236Y0000R000S-1616424989
317GND              VIA        MD0118PA00X+009990Y+014144X0236Y0000R000S-1616424989
317GND              VIA        MD0118PA00X-000984Y+016732X0236Y0000R000S-1616424989
317GND              VIA        MD0118PA00X+025502Y+010064X0236Y0000R000S-1616424989
317GND              VIA        MD0118PA00X+023622Y+026575X0236Y0000R000S-1616424989
317GND              VIA        MD0118PA00X+017795Y+024331X0236Y0000R000S-1616424989
317GND              VIA        MD0118PA00X+019685Y+000984X0236Y0000R000S-1616424989
317GND              VIA        MD0118PA00X+002726Y+000000X0236Y0000R000S-1616424989
317GND              VIA        MD0118PA00X+024606Y+024606X0236Y0000R000S-1616424989
317/MCU/AN_IN       VIA        MD0079PA00X+009797Y+009823X0157Y0000R000S-1616424989
317/MCU/AN_IN       VIA        MD0079PA00X+020709Y+017037X0157Y0000R000S-1616424989
317P3V3             VIA        MD0079PA00X+009469Y+013622X0157Y0000R000S-1616424989
317P3V3             VIA        MD0079PA00X+021073Y+020472X0157Y0000R000S-1616424989
317P3V3             VIA        MD0079PA00X+009469Y+012441X0157Y0000R000S-1616424989
317P3V3             VIA        MD0079PA00X+013906Y+019346X0157Y0000R000S-1616424989
317P3V3             VIA        MD0079PA00X+021073Y+009754X0157Y0000R000S-1616424989
317P3V3             VIA        MD0079PA00X+012687Y+004970X0157Y0000R000S-1616424989
317P3V3             VIA        MD0079PA00X+021535Y+021033X0157Y0000R000S-1616424989
317P3V3             VIA        MD0079PA00X+020689Y+021033X0157Y0000R000S-1616424989
317P3V3             VIA        MD0079PA00X+008647Y+007899X0157Y0000R000S-1616424989
317P3V3             VIA        MD0079PA00X+009469Y+013041X0157Y0000R000S-1616424989
317P3V3             VIA        MD0079PA00X+013551Y+012559X0157Y0000R000S-1616424989
317P3V3             VIA        MD0079PA00X+004360Y+003829X0157Y0000R000S-1616424989
317P3V3             VIA        MD0079PA00X+013583Y+022943X0157Y0000R000S-1616424989
317P3V3             VIA        MD0079PA00X+008957Y+006460X0157Y0000R000S-1616424989
317P3V3             VIA        MD0079PA00X+013415Y+007835X0157Y0000R000S-1616424989
317P3V3             VIA        MD0079PA00X+020434Y+005924X0157Y0000R000S-1616424989
317/MCU/NRST        VIA        MD0079PA00X+007754Y+009813X0157Y0000R000S-1616424989
317/MCU/NRST        VIA        MD0079PA00X+008733Y+017197X0157Y0000R000S-1616424989
317/MCU/NRST        VIA        MD0079PA00X+009350Y+021358X0157Y0000R000S-1616424989
317/MCU/SERVO       VIA        MD0079PA00X+003258Y+022293X0157Y0000R000S-1616424989
317/MCU/SERVO       VIA        MD0079PA00X+011358Y+014173X0157Y0000R000S-1616424989
317T_DRIVER/BST_3   VIA        MD0079PA00X+022244Y+006811X0157Y0000R000S-1616424989
317H3_VS            VIA        MD0079PA00X+021594Y+005974X0157Y0000R000S-1616424989
317T_DRIVER/BST_2   VIA        MD0079PA00X+022244Y+007992X0157Y0000R000S-1616424989
317H2_VS            VIA        MD0079PA00X+026998Y+006378X0157Y0000R000S-1616424989
317H2_VS            VIA        MD0079PA00X+022244Y+007392X0157Y0000R000S-1616424989
317H2_VS            VIA        MD0079PA00X+026998Y+006939X0157Y0000R000S-1616424989
317T_DRIVER/BST_1   VIA        MD0079PA00X+022244Y+009183X0157Y0000R000S-1616424989
317H1_VS            VIA        MD0079PA00X+022244Y+008573X0157Y0000R000S-1616424989
317H1_VS            VIA        MD0079PA00X+026526Y+012461X0157Y0000R000S-1616424989
317H1_VS            VIA        MD0079PA00X+025315Y+012461X0157Y0000R000S-1616424989
317S1_N             VIA        MD0079PA00X+022165Y+005994X0157Y0000R000S-1616424989
317S1_P             VIA        MD0079PA00X+022165Y+005659X0157Y0000R000S-1616424989
317S2_P             VIA        MD0079PA00X+024006Y+005679X0157Y0000R000S-1616424989
317S2_N             VIA        MD0079PA00X+023701Y+005699X0157Y0000R000S-1616424989
317VBUS             VIA        MD0079PA00X+019793Y+024301X0157Y0000R000S-1616424989
317VBUS             VIA        MD0079PA00X+019292Y+023799X0157Y0000R000S-1616424989
317VBUS             VIA        MD0079PA00X+019094Y+022694X0157Y0000R000S-1616424989
317/USB-C/USB-C_P   VIA        MD0079PA00X+017734Y+022492X0157Y0000R000S-1616424989
317/USB-C/USB-C_P   VIA        MD0079PA00X+018720Y+024281X0157Y0000R000S-1616424989
317/USB-C/USB-C_N   VIA        MD0079PA00X+019006Y+024281X0157Y0000R000S-1616424989
317/USB-C/USB-C_N   VIA        MD0079PA00X+017915Y+022311X0157Y0000R000S-1616424989
317/MCU/ADC_TEMP    VIA        MD0079PA00X+007717Y+006565X0157Y0000R000S-1616424989
317/MCU/ADC_TEMP    VIA        MD0079PA00X+005571Y+005531X0157Y0000R000S-1616424989
317CU/SCK_ADC_EXT   VIA        MD0079PA00X+010325Y+008553X0157Y0000R000S-1616424989
317CU/SCK_ADC_EXT   VIA        MD0079PA00X+010837Y+008346X0157Y0000R000S-1616424989
317MCU/RX_SDA_NSS   VIA        MD0079PA00X+012726Y+008445X0157Y0000R000S-1616424989
317MCU/RX_SDA_NSS   VIA        MD0079PA00X+014409Y+009252X0157Y0000R000S-1616424989
317CU/TX_SCL_MOSI   VIA        MD0079PA00X+012136Y+008445X0157Y0000R000S-1616424989
317CU/TX_SCL_MOSI   VIA        MD0079PA00X+014400Y+009843X0157Y0000R000S-1616424989
317ET_DRIVER/DVDD   VIA        MD0079PA00X+020797Y+006211X0157Y0000R000S-1616424989
317ET_DRIVER/DVDD   VIA        MD0118PA00X+016743Y+006303X0236Y0000R000S-1616424989
317H3_LOW           VIA        MD0079PA00X+026969Y+005502X0157Y0000R000S-1616424989
317H3_LOW           VIA        MD0079PA00X+025728Y+005502X0157Y0000R000S-1616424989
317H1_LOW           VIA        MD0079PA00X+027648Y+017264X0157Y0000R000S-1616424989
317H1_LOW           VIA        MD0079PA00X+027657Y+012539X0157Y0000R000S-1616424989
317H2_LOW           VIA        MD0079PA00X+027618Y+011112X0157Y0000R000S-1616424989
317H2_LOW           VIA        MD0079PA00X+026344Y+006383X0157Y0000R000S-1616424989
317FAULT            VIA        MD0079PA00X+016152Y+010079X0157Y0000R000S-1616424989
317FAULT            VIA        MD0079PA00X+012146Y+012913X0157Y0000R000S-1616424989
317SENS3            VIA        MD0079PA00X+033406Y+002077X0157Y0000R000S-1616424989
317SENS3            VIA        MD0079PA00X+009222Y+008386X0157Y0000R000S-1616424989
317SENS2            VIA        MD0079PA00X+034843Y+007776X0157Y0000R000S-1616424989
317SENS2            VIA        MD0079PA00X+009797Y+008839X0157Y0000R000S-1616424989
317SENS1            VIA        MD0079PA00X+019656Y+002087X0157Y0000R000S-1616424989
317SENS1            VIA        MD0079PA00X+010118Y+009331X0157Y0000R000S-1616424989
317/MOSFET/SH1_N    VIA        MD0079PA00X+027510Y+013669X0157Y0000R000S-1616424989
317/MOSFET/SH1_P    VIA        MD0079PA00X+027096Y+013669X0157Y0000R000S-1616424989
317/MOSFET/SH2_N    VIA        MD0079PA00X+027470Y+007421X0157Y0000R000S-1616424989
317/MOSFET/SH2_P    VIA        MD0079PA00X+027057Y+007421X0157Y0000R000S-1616424989
317TEMP_MOTOR       VIA        MD0079PA00X+007293Y+004951X0157Y0000R000S-1616424989
317TEMP_MOTOR       VIA        MD0079PA00X+008455Y+009626X0157Y0000R000S-1616424989
317HALL_2_OUT       VIA        MD0079PA00X+011447Y+006063X0157Y0000R000S-1616424989
317HALL_2_OUT       VIA        MD0079PA00X+011393Y+009178X0157Y0000R000S-1616424989
317L1               VIA        MD0079PA00X+013189Y+009232X0157Y0000R000S-1616424989
317L1               VIA        MD0079PA00X+019262Y+006978X0157Y0000R000S-1616424989
317L2               VIA        MD0079PA00X+020433Y+006496X0157Y0000R000S-1616424989
317L2               VIA        MD0079PA00X+015856Y+007126X0157Y0000R000S-1616424989
317DC_CAL           VIA        MD0079PA00X+014409Y+008504X0157Y0000R000S-1616424989
317DC_CAL           VIA        MD0079PA00X+019297Y+008287X0157Y0000R000S-1616424989
317HALL_1_OUT       VIA        MD0079PA00X+010217Y+005256X0157Y0000R000S-1616424989
317HALL_1_OUT       VIA        MD0079PA00X+010965Y+008927X0157Y0000R000S-1616424989
317EN_GATE          VIA        MD0079PA00X+019291Y+007500X0157Y0000R000S-1616424989
317EN_GATE          VIA        MD0079PA00X+015089Y+007697X0157Y0000R000S-1616424989
317H1               VIA        MD0079PA00X+020492Y+007540X0157Y0000R000S-1616424989
317H1               VIA        MD0079PA00X+016152Y+010610X0157Y0000R000S-1616424989
317H2               VIA        MD0079PA00X+020431Y+006968X0157Y0000R000S-1616424989
317H2               VIA        MD0079PA00X+016919Y+008878X0157Y0000R000S-1616424989
317HALL_3_OUT       VIA        MD0079PA00X+011781Y+005571X0157Y0000R000S-1616424989
317HALL_3_OUT       VIA        MD0079PA00X+011978Y+009232X0157Y0000R000S-1616424989
327P5V              D9    -1          A01X+004843Y+014272X0236Y0177R180S2
327/MCU/P5V_COM     D9    -2          A01X+004016Y+014272X0236Y0177R180S2
327/MCU/PH_1        C15   -1          A01X+006250Y+009833X0354Y0374R180S2
327GND              C15   -2          A01X+005640Y+009833X0354Y0374R180S2
327P3V3             C17   -1          A01X+009980Y+013081X0354Y0374R270S2
327GND              C17   -2          A01X+009980Y+013691X0354Y0374R270S2
327/MCU/SERVO       R20   -1          A01X+003868Y+022736X0315Y0374R270S2
327/MCU/NODE7       R20   -2          A01X+003868Y+023386X0315Y0374R270S2
327GND              D1    -1          A01X+032244Y+023524X0984Y0709R090S2
327+VDC             D1    -2          A01X+032244Y+021949X0984Y0709R090S2
327P3V3             C60   -1          A01X+006644Y+003907X0354Y0374R270S2
327GND              C60   -2          A01X+006644Y+004518X0354Y0374R270S2
327CAN/CONN_CAN_P   R52   -1          A01X+004232Y+018770X0315Y0374R270S2
327CAN/CONN_CAN_N   R52   -2          A01X+004232Y+019419X0315Y0374R270S2
327M_H2             R40   -1          A01X+031604Y+013681X0315Y0374R000S2
327MOSFET/M_H2_RG   R40   -2          A01X+032254Y+013681X0315Y0374R000S2
327CAN/CONN_CAN_N   D15   -1          A01X+002746Y+019469X0512Y0236R000S2
327CAN/CONN_CAN_P   D15   -2          A01X+002746Y+018720X0512Y0236R000S2
327GND              D15   -3          A01X+003553Y+019094X0512Y0236R000S2
327+VDC             R1    -1          A01X+033465Y+021663X0315Y0374R270S2
327/INPUT/NODE1     R1    -2          A01X+033465Y+022313X0315Y0374R270S2
327N/C              FID2              A01X+035433Y+023622X0394Y0000R000S2
327/USB-C/CC1       R5    -1          A01X+019813Y+023150X0315Y0374R000S2
327GND              R5    -2          A01X+020463Y+023150X0315Y0374R000S2
327T_DRIVER/NODE8   C24   -1          A01X+017343Y+010226X0354Y0374R270S2
327GND              C24   -2          A01X+017343Y+010837X0354Y0374R270S2
327ILTERS/TEMP_IN   R59   -1          A01X+007293Y+003228X0315Y0374R180S2
327P3V3             R59   -2          A01X+006644Y+003228X0315Y0374R180S2
327P3V3             C9    -1          A01X+009004Y+012441X0354Y0374R180S2
327GND              C9    -2          A01X+008394Y+012441X0354Y0374R180S2
327EP_DOWN/P3V3_I   C6    -1          A01X+019852Y+019705X0354Y0374R180S2
327GND              C6    -2          A01X+019242Y+019705X0354Y0374R180S2
327P3V3             D7    -1          A01X+003386Y+012441X0236Y0177R180S2
327/MCU/P3V3_COM    D7    -2          A01X+002559Y+012441X0236Y0177R180S2
327GND              J10   -1_1        A01X+001240Y+019980X0335Y1043R090S3
327GND              J10   -1_2        A01X-000295Y+019980X0335Y1398R090S3
327CAN/CONN_CAN_N   J10   -2_1        A01X+001240Y+019390X0335Y1043R090S3
327CAN/CONN_CAN_N   J10   -2_2        A01X-000295Y+019390X0335Y1398R090S3
327CAN/CONN_CAN_P   J10   -3_1        A01X+001240Y+018799X0335Y1043R090S3
327CAN/CONN_CAN_P   J10   -3_2        A01X-000295Y+018799X0335Y1398R090S3
327P5V              J10   -4_1        A01X+001240Y+018209X0335Y1043R090S3
327P5V              J10   -4_2        A01X-000295Y+018209X0335Y1398R090S3
327HANICAL/NODE11   R63   -1          A01X+033819Y+025591X0315Y0374R180S2
327GND              R63   -2          A01X+033169Y+025591X0315Y0374R180S2
327_DRIVER/OC_ADJ   C28   -1          A01X+018150Y+007874X0354Y0374R180S2
327GND              C28   -2          A01X+017539Y+007874X0354Y0374R180S2
327LTERS/HALL1_IN   R56   -1          A01X+008976Y+003888X0315Y0374R270S2
327HALL_1_OUT       R56   -2          A01X+008976Y+004537X0315Y0374R270S2
327CAN_TXRX_P       U5    -1          A01X+012604Y+018344X0776Y0236R180S2
327GND              U5    -2          A01X+012604Y+018844X0776Y0236R180S2
327P3V3             U5    -3          A01X+012604Y+019344X0776Y0236R180S2
327CAN_TXRX_N       U5    -4          A01X+012604Y+019844X0776Y0236R180S2
327(U5-VREF-PAD5)   U5    -5          A01X+010659Y+019844X0776Y0236R180S2
327/CAN/CAN_N       U5    -6          A01X+010659Y+019344X0776Y0236R180S2
327/CAN/CAN_P       U5    -7          A01X+010659Y+018844X0776Y0236R180S2
327/CAN/CAN_RS      U5    -8          A01X+010659Y+018344X0776Y0236R180S2
327ET_DRIVER/GVDD   C26   -1          A01X+018140Y+006091X0354Y0374R180S2
327GND              C26   -2          A01X+017530Y+006091X0354Y0374R180S2
327LTERS/HALL3_IN   R58   -1          A01X+011604Y+003888X0315Y0374R270S2
327HALL_3_OUT       R58   -2          A01X+011604Y+004537X0315Y0374R270S2
327/MCU/NODE4       SW1   -1          A01X+006228Y+016596X0375Y0220R000S2
327/MCU/NODE4       SW1   -1          A01X+006228Y+015136X0375Y0220R000S2
327/MCU/NRST        SW1   -2          A01X+008733Y+016596X0375Y0220R000S2
327/MCU/NRST        SW1   -2          A01X+008733Y+015136X0375Y0220R000S2
327/MCU/PH_1        R16   -1          A01X+007323Y+010896X0315Y0374R000S2
327/MCU/PH1_P       R16   -2          A01X+007972Y+010896X0315Y0374R000S2
317HANICAL/NODE13   MH4   -1    D0197PA00X+034547Y+000000X0315Y0000R000S0
317HANICAL/NODE13   MH4   -1    D0197PA00X+034807Y+000626X0315Y0000R000S0
317HANICAL/NODE13   MH4   -1    D0197PA00X+034807Y-000626X0315Y0000R000S0
317HANICAL/NODE13   MH4   -1    D0197PA00X+035433Y+000886X0315Y0000R000S0
317HANICAL/NODE13   MH4   -1    D1181PA00X+035433Y+000000X2362Y0000R000S0
317HANICAL/NODE13   MH4   -1    D0197PA00X+035433Y-000886X0315Y0000R000S0
317HANICAL/NODE13   MH4   -1    D0197PA00X+036059Y+000626X0315Y0000R000S0
317HANICAL/NODE13   MH4   -1    D0197PA00X+036059Y-000626X0315Y0000R000S0
317HANICAL/NODE13   MH4   -1    D0197PA00X+036319Y+000000X0315Y0000R000S0
327CAN/CONN_CAN_P   C52   -1          A01X+004813Y+018150X0354Y0374R000S2
327GND              C52   -2          A01X+005423Y+018150X0354Y0374R000S2
327/MCU/P5V_COM     D8    -1          A01X+002992Y+014272X0984Y0709R270S2
327GND              D8    -2          A01X+002992Y+015846X0984Y0709R270S2
327N/C              FID1              A01X+000000Y+023622X0394Y0000R000S2
327ILTERS/TEMP_IN   C59   -1          A01X+007274Y+002638X0354Y0374R180S2
327GND              C59   -2          A01X+006663Y+002638X0354Y0374R180S2
327GND              D10   -1          A01X+014813Y+000522X0492Y0689R270S2
327/MCU/NODE5       D10   -2          A01X+014813Y+001624X0492Y0689R270S2
327P3V3             R10   -1          A01X+021535Y+020472X0315Y0374R090S2
327TEP_DOWN/NODE3   R10   -2          A01X+021535Y+019823X0315Y0374R090S2
327H2_LOW           Q4    -1          A01X+030150Y+010222X0500Y0240R000S2
327H2_LOW           Q4    -2          A01X+030150Y+009722X0500Y0240R000S2
327H2_LOW           Q4    -3          A01X+030150Y+009222X0500Y0240R000S2
327MOSFET/M_L2_RG   Q4    -4          A01X+030150Y+008722X0500Y0240R000S2
327MOSFET/PHASE_2   Q4    -5          A01X+031472Y+009472X1500Y1539R000S2
327MOSFET/PHASE_2   Q4    -5          A01X+032301Y+010222X0402Y0240R000S2
327MOSFET/PHASE_2   Q4    -5          A01X+032301Y+009722X0402Y0240R000S2
327MOSFET/PHASE_2   Q4    -5          A01X+032301Y+009222X0402Y0240R000S2
327MOSFET/PHASE_2   Q4    -5          A01X+032301Y+008722X0402Y0240R000S2
327H3_LOW           Q6    -1          A01X+030150Y+003976X0500Y0240R000S2
327H3_LOW           Q6    -2          A01X+030150Y+003476X0500Y0240R000S2
327H3_LOW           Q6    -3          A01X+030150Y+002976X0500Y0240R000S2
327MOSFET/M_L3_RG   Q6    -4          A01X+030150Y+002476X0500Y0240R000S2
327MOSFET/PHASE_3   Q6    -5          A01X+031472Y+003226X1500Y1539R000S2
327MOSFET/PHASE_3   Q6    -5          A01X+032301Y+003976X0402Y0240R000S2
327MOSFET/PHASE_3   Q6    -5          A01X+032301Y+003476X0402Y0240R000S2
327MOSFET/PHASE_3   Q6    -5          A01X+032301Y+002976X0402Y0240R000S2
327MOSFET/PHASE_3   Q6    -5          A01X+032301Y+002476X0402Y0240R000S2
327LTERS/HALL2_IN   R57   -1          A01X+010610Y+003888X0315Y0374R270S2
327HALL_2_OUT       R57   -2          A01X+010610Y+004537X0315Y0374R270S2
327GND              D5    -1          A01X+022530Y+020925X0492Y0689R090S2
327TEP_DOWN/NODE3   D5    -2          A01X+022530Y+019823X0492Y0689R090S2
327M_L2             R41   -1          A01X+029504Y+008041X0315Y0374R270S2
327MOSFET/M_L2_RG   R41   -2          A01X+029504Y+008691X0315Y0374R270S2
327H3_VS            R28   -1          A01X+033776Y+001476X0315Y0374R000S2
327SENS3            R28   -2          A01X+034425Y+001476X0315Y0374R000S2
327H1_VS            NT2   -1          A01X+033248Y+014419X0197Y0000R180S3
327MOSFET/PHASE_1   NT2   -2          A01X+032854Y+014419X0197Y0000R180S3
327H1_VS            R32   -1          A01X+033780Y+014134X0315Y0374R000S2
327SENS1            R32   -2          A01X+034429Y+014134X0315Y0374R000S2
327T_DRIVER/NODE8   R21   -1          A01X+017904Y+010236X0315Y0374R000S2
327ET_DRIVER/COMP   R21   -2          A01X+018553Y+010236X0315Y0374R000S2
327/MCU/VCAP_1      C19   -1          A01X+013415Y+006644X0354Y0374R000S2
327GND              C19   -2          A01X+014026Y+006644X0354Y0374R000S2
327/USB-C/USB-C_N   R7    -1          A01X+014488Y+014734X0315Y0374R090S2
327USB_N            R7    -2          A01X+014488Y+014085X0315Y0374R090S2
327GND              D11   -1          A01X+015797Y+000522X0492Y0689R270S2
327/MCU/NODE6       D11   -2          A01X+015797Y+001624X0492Y0689R270S2
327CAN/CONN_CAN_N   C51   -1          A01X+004813Y+020039X0354Y0374R000S2
327GND              C51   -2          A01X+005423Y+020039X0354Y0374R000S2
327DRIVER/P5V_DRV   C44   -1          A01X+016900Y+013120X0453Y1063R270S2
327GND              C44   -2          A01X+016900Y+014281X0453Y1063R270S2
327P3V3             C12   -1          A01X+010098Y+006978X0354Y0374R180S2
327GND              C12   -2          A01X+009488Y+006978X0354Y0374R180S2
317+VDC             J1    -1    D1063PA00X+029823Y+021063X1463Y1463R180S0
317GND              J1    -2    D1063PA00X+026988Y+021063X1463Y0000R180S0
317SHIELD-PADSH1)   J1    -SH1  D0236PA00X+031063Y+023425X0472Y0945R180S0
317IELD-PADSH1)_1   J1    -SH2  D0236PA00X+025748Y+023425X0472Y0945R180S0
327H2_LOW           R45   -1          A01X+028220Y+009524X0961Y2205R180S2
327GND              R45   -2          A01X+026268Y+009524X0961Y2205R180S2
327/MOSFET/SH2_N    R45   -3          A01X+028220Y+007896X0961Y0350R180S2
327/MOSFET/SH2_P    R45   -4          A01X+026268Y+007896X0961Y0350R180S2
327/MCU/P5V_COM     J4    -1_1        A01X+001240Y+013780X0335Y1043R090S3
327/MCU/P5V_COM     J4    -1_2        A01X-000295Y+013780X0335Y1398R090S3
327/MCU/P3V3_COM    J4    -2_1        A01X+001240Y+013189X0335Y1043R090S3
327/MCU/P3V3_COM    J4    -2_2        A01X-000295Y+013189X0335Y1398R090S3
327GND              J4    -3_1        A01X+001240Y+012598X0335Y1043R090S3
327GND              J4    -3_2        A01X-000295Y+012598X0335Y1398R090S3
327CU/SCK_ADC_EXT   J4    -4_1        A01X+001240Y+012008X0335Y1043R090S3
327CU/SCK_ADC_EXT   J4    -4_2        A01X-000295Y+012008X0335Y1398R090S3
327MCU/RX_SDA_NSS   J4    -5_1        A01X+001240Y+011417X0335Y1043R090S3
327MCU/RX_SDA_NSS   J4    -5_2        A01X-000295Y+011417X0335Y1398R090S3
327CU/TX_SCL_MOSI   J4    -6_1        A01X+001240Y+010827X0335Y1043R090S3
327CU/TX_SCL_MOSI   J4    -6_2        A01X-000295Y+010827X0335Y1398R090S3
327/MISO_ADC_EXT2   J4    -7_1        A01X+001240Y+010236X0335Y1043R090S3
327/MISO_ADC_EXT2   J4    -7_2        A01X-000295Y+010236X0335Y1398R090S3
327GND              J4    -8_1        A01X+001240Y+009646X0335Y1043R090S3
327GND              J4    -8_2        A01X-000295Y+009646X0335Y1398R090S3
327DRIVER/P5V_DRV   R26   -1          A01X+016594Y+012352X0315Y0374R090S2
327_DRIVER/VSENSE   R26   -2          A01X+016594Y+011703X0315Y0374R090S2
327H1_LOW           Q2    -1          A01X+030150Y+016522X0500Y0240R000S2
327H1_LOW           Q2    -2          A01X+030150Y+016022X0500Y0240R000S2
327H1_LOW           Q2    -3          A01X+030150Y+015522X0500Y0240R000S2
327MOSFET/M_L1_RG   Q2    -4          A01X+030150Y+015022X0500Y0240R000S2
327MOSFET/PHASE_1   Q2    -5          A01X+031472Y+015772X1500Y1539R000S2
327MOSFET/PHASE_1   Q2    -5          A01X+032301Y+016522X0402Y0240R000S2
327MOSFET/PHASE_1   Q2    -5          A01X+032301Y+016022X0402Y0240R000S2
327MOSFET/PHASE_1   Q2    -5          A01X+032301Y+015522X0402Y0240R000S2
327MOSFET/PHASE_1   Q2    -5          A01X+032301Y+015022X0402Y0240R000S2
327P3V3             D12   -1          A01X+013140Y+022943X0236Y0177R180S2
327/MCU/P3V3_DBG    D12   -2          A01X+012313Y+022943X0236Y0177R180S2
327EP_DOWN/P3V3_I   C5    -1          A01X+019852Y+019114X0354Y0374R180S2
327GND              C5    -2          A01X+019242Y+019114X0354Y0374R180S2
327P5V              R4    -1          A01X+020295Y+022411X0315Y0374R180S2
327VBUS             R4    -2          A01X+019646Y+022411X0315Y0374R180S2
327P5V              J5    -1_1        A01X+005807Y+024409X0335Y1043R180S3
327P5V              J5    -1_2        A01X+005807Y+025945X0335Y1398R180S3
327GND              J5    -2_1        A01X+005217Y+024409X0335Y1043R180S3
327GND              J5    -2_2        A01X+005217Y+025945X0335Y1398R180S3
327/MCU/NODE7       J5    -3_1        A01X+004626Y+024409X0335Y1043R180S3
327/MCU/NODE7       J5    -3_2        A01X+004626Y+025945X0335Y1398R180S3
327/MCU/P3V3_A      C22   -1          A01X+007754Y+008110X0354Y0374R180S2
327GND              C22   -2          A01X+007144Y+008110X0354Y0374R180S2
317HANICAL/NODE12   MH3   -1    D0197PA00X-000886Y+000000X0315Y0000R000S0
317HANICAL/NODE12   MH3   -1    D0197PA00X-000626Y+000626X0315Y0000R000S0
317HANICAL/NODE12   MH3   -1    D0197PA00X-000626Y-000626X0315Y0000R000S0
317HANICAL/NODE12   MH3   -1    D0197PA00X+000000Y+000886X0315Y0000R000S0
317HANICAL/NODE12   MH3   -1    D1181PA00X+000000Y+000000X2362Y0000R000S0
317HANICAL/NODE12   MH3   -1    D0197PA00X+000000Y-000886X0315Y0000R000S0
317HANICAL/NODE12   MH3   -1    D0197PA00X+000626Y+000626X0315Y0000R000S0
317HANICAL/NODE12   MH3   -1    D0197PA00X+000626Y-000626X0315Y0000R000S0
317HANICAL/NODE12   MH3   -1    D0197PA00X+000886Y+000000X0315Y0000R000S0
327/CAN/R_CAN_P     R50   -1          A01X+005443Y+018770X0315Y0374R180S2
327CAN/CONN_CAN_P   R50   -2          A01X+004793Y+018770X0315Y0374R180S2
327/MCU/PH_0        C14   -1          A01X+006250Y+012707X0354Y0374R180S2
327GND              C14   -2          A01X+005640Y+012707X0354Y0374R180S2
327+VDC             C32   -1          A01X+022805Y+004547X0354Y0374R180S2
327GND              C32   -2          A01X+022195Y+004547X0354Y0374R180S2
317MOSFET/PHASE_1   J7    -1    D0581PA00X+033638Y+018846X0709Y0000R000S0
317MOSFET/PHASE_1   J7    -2    D0581PA00X+034638Y+018846X0709Y0000R000S0
317MOSFET/PHASE_1   J7    -3    D0581PA00X+035638Y+018846X0709Y0000R000S0
317MOSFET/PHASE_1   J7    -4    D0581PA00X+036638Y+018846X0709Y0000R000S0
317MOSFET/PHASE_1   J7    -5    D0581PA00X+036638Y+015846X0709Y0000R000S0
317MOSFET/PHASE_1   J7    -6    D0581PA00X+035638Y+015846X0709Y0000R000S0
317MOSFET/PHASE_1   J7    -7    D0581PA00X+034638Y+015846X0709Y0000R000S0
317MOSFET/PHASE_1   J7    -8    D0581PA00X+033638Y+015846X0709Y0000R000S0
327LTERS/HALL1_IN   C53   -1          A01X+008957Y+002638X0354Y0374R180S2
327GND              C53   -2          A01X+008346Y+002638X0354Y0374R180S2
327DRIVER/P5V_DRV   C42   -1          A01X+018169Y+013120X0453Y1063R270S2
327GND              C42   -2          A01X+018169Y+014281X0453Y1063R270S2
327M_L3             R47   -1          A01X+029504Y+002392X0315Y0374R090S2
327MOSFET/M_L3_RG   R47   -2          A01X+029504Y+001742X0315Y0374R090S2
327B-C/SHIELD_USB   R3    -1          A01X+021329Y+025925X0315Y0374R000S2
327GND              R3    -2          A01X+021978Y+025925X0315Y0374R000S2
327M_L1             R35   -1          A01X+029406Y+014990X0315Y0374R090S2
327MOSFET/M_L1_RG   R35   -2          A01X+029406Y+014341X0315Y0374R090S2
327P5V              J11   -1_1        A01X+008071Y+001083X0335Y1043R000S3
327P5V              J11   -1_2        A01X+008071Y-000453X0335Y1398R000S3
327ILTERS/TEMP_IN   J11   -2_1        A01X+008661Y+001083X0335Y1043R000S3
327ILTERS/TEMP_IN   J11   -2_2        A01X+008661Y-000453X0335Y1398R000S3
327LTERS/HALL1_IN   J11   -3_1        A01X+009252Y+001083X0335Y1043R000S3
327LTERS/HALL1_IN   J11   -3_2        A01X+009252Y-000453X0335Y1398R000S3
327LTERS/HALL2_IN   J11   -4_1        A01X+009843Y+001083X0335Y1043R000S3
327LTERS/HALL2_IN   J11   -4_2        A01X+009843Y-000453X0335Y1398R000S3
327LTERS/HALL3_IN   J11   -5_1        A01X+010433Y+001083X0335Y1043R000S3
327LTERS/HALL3_IN   J11   -5_2        A01X+010433Y-000453X0335Y1398R000S3
327GND              J11   -6_1        A01X+011024Y+001083X0335Y1043R000S3
327GND              J11   -6_2        A01X+011024Y-000453X0335Y1398R000S3
327SFET_DRIVER/PH   D13   -1          A01X+024075Y+011083X0472Y0472R270S2
327GND              D13   -2          A01X+024075Y+012185X0472Y0472R270S2
327ET_DRIVER/DVDD   NT1   -1          A01X+016841Y+007283X0197Y0000R000S3
327_DRIVER/OC_ADJ   NT1   -2          A01X+017234Y+007283X0197Y0000R000S3
327P3V3             C13   -1          A01X+013415Y+007392X0354Y0374R000S2
327GND              C13   -2          A01X+014026Y+007392X0354Y0374R000S2
327/MCU/ADC_TEMP    J3    -1_1        A01X+003839Y+001181X0335Y1043R000S3
327/MCU/ADC_TEMP    J3    -1_2        A01X+003839Y-000354X0335Y1398R000S3
327GND              J3    -2_1        A01X+004429Y+001181X0335Y1043R000S3
327GND              J3    -2_2        A01X+004429Y-000354X0335Y1398R000S3
327P3V3             C8    -1          A01X+005020Y+003061X0354Y0374R090S2
327GND              C8    -2          A01X+005020Y+002451X0354Y0374R090S2
327/USB-C/CC2       R6    -1          A01X+018051Y+023150X0315Y0374R180S2
327GND              R6    -2          A01X+017402Y+023150X0315Y0374R180S2
327SENS3            R29   -1          A01X+033776Y+002067X0315Y0374R000S2
327GND              R29   -2          A01X+034425Y+002067X0315Y0374R000S2
327+VDC             R11   -1          A01X+022402Y+017667X0315Y0374R090S2
327/MCU/AN_IN       R11   -2          A01X+022402Y+017018X0315Y0374R090S2
327SFET_DRIVER/PH   L1    -1          A01X+022856Y+013701X1065Y3150R180S2
327DRIVER/P5V_DRV   L1    -2          A01X+020766Y+013701X1065Y3150R180S2
327P3V3             R54   -1          A01X+009961Y+003228X0315Y0374R000S2
327LTERS/HALL2_IN   R54   -2          A01X+010610Y+003228X0315Y0374R000S2
327P3V3             C10   -1          A01X+009004Y+013031X0354Y0374R180S2
327GND              C10   -2          A01X+008394Y+013031X0354Y0374R180S2
327H2_VS            R30   -1          A01X+033776Y+007776X0315Y0374R000S2
327SENS2            R30   -2          A01X+034425Y+007776X0315Y0374R000S2
327P5V              D14   -1          A01X+015807Y+013917X0236Y0177R090S2
327DRIVER/P5V_DRV   D14   -2          A01X+015807Y+013091X0236Y0177R090S2
327P3V3             D4    -1          A01X+020679Y+020472X0236Y0177R180S2
327EP_DOWN/P3V3_I   D4    -2          A01X+019852Y+020472X0236Y0177R180S2
327/MCU/P3V3_DBG    J6    -1_1        A01X+012303Y+024508X0335Y1043R180S3
327/MCU/P3V3_DBG    J6    -1_2        A01X+012303Y+026043X0335Y1398R180S3
327/MCU/SWCLK       J6    -2_1        A01X+011713Y+024508X0335Y1043R180S3
327/MCU/SWCLK       J6    -2_2        A01X+011713Y+026043X0335Y1398R180S3
327GND              J6    -3_1        A01X+011122Y+024508X0335Y1043R180S3
327GND              J6    -3_2        A01X+011122Y+026043X0335Y1398R180S3
327/MCU/SWDIO       J6    -4_1        A01X+010531Y+024508X0335Y1043R180S3
327/MCU/SWDIO       J6    -4_2        A01X+010531Y+026043X0335Y1398R180S3
327GND              J6    -5_1        A01X+009941Y+024508X0335Y1043R180S3
327GND              J6    -5_2        A01X+009941Y+026043X0335Y1398R180S3
327/MCU/NRST        J6    -6_1        A01X+009350Y+024508X0335Y1043R180S3
327/MCU/NRST        J6    -6_2        A01X+009350Y+026043X0335Y1398R180S3
327GND              D2    -1          A01X+033465Y+024114X0492Y0689R090S2
327/INPUT/NODE1     D2    -2          A01X+033465Y+023012X0492Y0689R090S2
327+VDC             C33   -1          A01X+022805Y+003957X0354Y0374R180S2
327GND              C33   -2          A01X+022195Y+003957X0354Y0374R180S2
327H2_VS            NT3   -1          A01X+033238Y+008169X0197Y0000R180S3
327MOSFET/PHASE_2   NT3   -2          A01X+032844Y+008169X0197Y0000R180S3
327/MCU/LED_RED     R18   -1          A01X+015797Y+002972X0315Y0374R090S2
327/MCU/NODE6       R18   -2          A01X+015797Y+002323X0315Y0374R090S2
327ET_DRIVER/GVDD   C29   -1          A01X+018140Y+006693X0354Y0374R180S2
327GND              C29   -2          A01X+017530Y+006693X0354Y0374R180S2
327GND              R49   -1          A01X+011309Y+017717X0315Y0374R180S2
327/CAN/CAN_RS      R49   -2          A01X+010659Y+017717X0315Y0374R180S2
327SENS1            R33   -1          A01X+033780Y+014724X0315Y0374R000S2
327GND              R33   -2          A01X+034429Y+014724X0315Y0374R000S2
327_DRIVER/OC_ADJ   C25   -1          A01X+017539Y+007283X0354Y0374R000S2
327GND              C25   -2          A01X+018150Y+007283X0354Y0374R000S2
327P3V3             C57   -1          A01X+009961Y+003907X0354Y0374R270S2
327GND              C57   -2          A01X+009961Y+004518X0354Y0374R270S2
327/MCU/AN_IN       C7    -1          A01X+021811Y+017037X0354Y0374R270S2
327GND              C7    -2          A01X+021811Y+017648X0354Y0374R270S2
327+VDC             C37   -1          A01X+022303Y+011033X0354Y0374R270S2
327GND              C37   -2          A01X+022303Y+011644X0354Y0374R270S2
327/MCU/SERVO       C23   -1          A01X+003258Y+022756X0354Y0374R270S2
327GND              C23   -2          A01X+003258Y+023366X0354Y0374R270S2
327+VDC             C43   -1          A01X+021122Y+011033X0354Y0374R270S2
327GND              C43   -2          A01X+021122Y+011644X0354Y0374R270S2
327/MCU/PH_0        R15   -1          A01X+007323Y+011683X0315Y0374R000S2
327/MCU/PH0_P       R15   -2          A01X+007972Y+011683X0315Y0374R000S2
317MOSFET/PHASE_2   J8    -1    D0581PA00X+033638Y+012547X0709Y0000R000S0
317MOSFET/PHASE_2   J8    -2    D0581PA00X+034638Y+012547X0709Y0000R000S0
317MOSFET/PHASE_2   J8    -3    D0581PA00X+035638Y+012547X0709Y0000R000S0
317MOSFET/PHASE_2   J8    -4    D0581PA00X+036638Y+012547X0709Y0000R000S0
317MOSFET/PHASE_2   J8    -5    D0581PA00X+036638Y+009547X0709Y0000R000S0
317MOSFET/PHASE_2   J8    -6    D0581PA00X+035638Y+009547X0709Y0000R000S0
317MOSFET/PHASE_2   J8    -7    D0581PA00X+034638Y+009547X0709Y0000R000S0
317MOSFET/PHASE_2   J8    -8    D0581PA00X+033638Y+009547X0709Y0000R000S0
327HANICAL/NODE13   R64   -1          A01X+033789Y+000000X0315Y0374R180S2
327GND              R64   -2          A01X+033140Y+000000X0315Y0374R180S2
327GND              NT5   -1          A01X+029026Y+003947X0197Y0000R000S3
327H3_LOW           NT5   -2          A01X+029419Y+003947X0197Y0000R000S3
327GND              R19   -1          A01X+010974Y+013711X0315Y0374R090S2
327/MCU/BOOT_P      R19   -2          A01X+010974Y+013061X0315Y0374R090S2
327+VDC             C36   -1          A01X+021713Y+011033X0354Y0374R270S2
327GND              C36   -2          A01X+021713Y+011644X0354Y0374R270S2
327M_H1             R34   -1          A01X+032146Y+020010X0315Y0374R000S2
327MOSFET/M_H1_RG   R34   -2          A01X+032795Y+020010X0315Y0374R000S2
327P5V              C4    -1          A01X+016341Y+016417X0354Y0374R270S2
327GND              C4    -2          A01X+016341Y+017028X0354Y0374R270S2
327+VDC             C34   -1          A01X+022805Y+003366X0354Y0374R180S2
327GND              C34   -2          A01X+022195Y+003366X0354Y0374R180S2
327DRIVER/P5V_DRV   C39   -1          A01X+019449Y+013120X0453Y1063R270S2
327GND              C39   -2          A01X+019449Y+014281X0453Y1063R270S2
327_DRIVER/RT_CLK   U4    -1          A01X+019866Y+010453X0618Y0110R000S2
327ET_DRIVER/COMP   U4    -2          A01X+019866Y+010256X0618Y0110R000S2
327_DRIVER/VSENSE   U4    -3          A01X+019866Y+010059X0618Y0110R000S2
327U4-PWRGD-PAD4)   U4    -4          A01X+019866Y+009862X0618Y0110R000S2
327U4-NOCTW-PAD5)   U4    -5          A01X+019866Y+009665X0618Y0110R000S2
327FAULT            U4    -6          A01X+019866Y+009469X0618Y0110R000S2
327FET_DRIVER/DTC   U4    -7          A01X+019866Y+009272X0618Y0110R000S2
327GND              U4    -8          A01X+019866Y+009075X0618Y0110R000S2
327P3V3             U4    -9          A01X+019866Y+008878X0618Y0110R000S2
327GND              U4    -10         A01X+019866Y+008681X0618Y0110R000S2
327_DRIVER/OC_ADJ   U4    -11         A01X+019866Y+008484X0618Y0110R000S2
327DC_CAL           U4    -12         A01X+019866Y+008287X0618Y0110R000S2
327ET_DRIVER/GVDD   U4    -13         A01X+019866Y+008091X0618Y0110R000S2
327FET_DRIVER/CP1   U4    -14         A01X+019866Y+007894X0618Y0110R000S2
327FET_DRIVER/CP2   U4    -15         A01X+019866Y+007697X0618Y0110R000S2
327EN_GATE          U4    -16         A01X+019866Y+007500X0618Y0110R000S2
327H1               U4    -17         A01X+019866Y+007303X0618Y0110R000S2
327L1               U4    -18         A01X+019866Y+007106X0618Y0110R000S2
327H2               U4    -19         A01X+019866Y+006909X0618Y0110R000S2
327L2               U4    -20         A01X+019866Y+006713X0618Y0110R000S2
327H3               U4    -21         A01X+019866Y+006516X0618Y0110R000S2
327L3               U4    -22         A01X+019866Y+006319X0618Y0110R000S2
327ET_DRIVER/DVDD   U4    -23         A01X+019866Y+006122X0618Y0110R000S2
327P3V3             U4    -24         A01X+019866Y+005925X0618Y0110R000S2
327BR_SO1           U4    -25         A01X+019866Y+005728X0618Y0110R000S2
327BR_SO2           U4    -26         A01X+019866Y+005531X0618Y0110R000S2
327T_DRIVER/NODE9   U4    -27         A01X+019866Y+005335X0618Y0110R000S2
327GND              U4    -28         A01X+019866Y+005138X0618Y0110R000S2
327+VDC             U4    -29         A01X+022795Y+005138X0618Y0110R000S2
327S2_P             U4    -30         A01X+022795Y+005335X0618Y0110R000S2
327S2_N             U4    -31         A01X+022795Y+005531X0618Y0110R000S2
327S1_P             U4    -32         A01X+022795Y+005728X0618Y0110R000S2
327S1_N             U4    -33         A01X+022795Y+005925X0618Y0110R000S2
327H3_LOW           U4    -34         A01X+022795Y+006122X0618Y0110R000S2
327M_L3             U4    -35         A01X+022795Y+006319X0618Y0110R000S2
327H3_VS            U4    -36         A01X+022795Y+006516X0618Y0110R000S2
327M_H3             U4    -37         A01X+022795Y+006713X0618Y0110R000S2
327T_DRIVER/BST_3   U4    -38         A01X+022795Y+006909X0618Y0110R000S2
327H2_LOW           U4    -39         A01X+022795Y+007106X0618Y0110R000S2
327M_L2             U4    -40         A01X+022795Y+007303X0618Y0110R000S2
327H2_VS            U4    -41         A01X+022795Y+007500X0618Y0110R000S2
327M_H2             U4    -42         A01X+022795Y+007697X0618Y0110R000S2
327T_DRIVER/BST_2   U4    -43         A01X+022795Y+007894X0618Y0110R000S2
327H1_LOW           U4    -44         A01X+022795Y+008091X0618Y0110R000S2
327M_L1             U4    -45         A01X+022795Y+008287X0618Y0110R000S2
327H1_VS            U4    -46         A01X+022795Y+008484X0618Y0110R000S2
327M_H1             U4    -47         A01X+022795Y+008681X0618Y0110R000S2
327T_DRIVER/BST_1   U4    -48         A01X+022795Y+008878X0618Y0110R000S2
327ET_DRIVER/BIAS   U4    -49         A01X+022795Y+009075X0618Y0110R000S2
327SFET_DRIVER/PH   U4    -50         A01X+022795Y+009272X0618Y0110R000S2
327SFET_DRIVER/PH   U4    -51         A01X+022795Y+009469X0618Y0110R000S2
327_DRIVER/BST_BK   U4    -52         A01X+022795Y+009665X0618Y0110R000S2
327+VDC             U4    -53         A01X+022795Y+009862X0618Y0110R000S2
327+VDC             U4    -54         A01X+022795Y+010059X0618Y0110R000S2
327EN_BUCK-PAD55)   U4    -55         A01X+022795Y+010256X0618Y0110R000S2
3274-SS_TR-PAD56)   U4    -56         A01X+022795Y+010453X0618Y0110R000S2
327GND              U4    -57         A01X+021331Y+007795X1274Y2291R000S2
327/MCU/LED_GREEN   R17   -1          A01X+014813Y+002972X0315Y0374R090S2
327/MCU/NODE5       R17   -2          A01X+014813Y+002323X0315Y0374R090S2
327+VDC             C38   -1          A01X+022894Y+011033X0354Y0374R270S2
327GND              C38   -2          A01X+022894Y+011644X0354Y0374R270S2
327P3V3             C58   -1          A01X+012254Y+003907X0354Y0374R270S2
327GND              C58   -2          A01X+012254Y+004518X0354Y0374R270S2
327/MCU/AN_IN       R12   -1          A01X+022992Y+017018X0315Y0374R270S2
327GND              R12   -2          A01X+022992Y+017667X0315Y0374R270S2
327P5V              C3    -1          A01X+015746Y+016417X0354Y0374R270S2
327GND              C3    -2          A01X+015746Y+017028X0354Y0374R270S2
327N/C              FID3              A01X+000000Y+001969X0394Y0000R000S2
327T_DRIVER/NODE9   C31   -1          A01X+020541Y+004547X0354Y0374R180S2
327GND              C31   -2          A01X+019931Y+004547X0354Y0374R180S2
327/MCU/P3V3_A      C21   -1          A01X+007754Y+008701X0354Y0374R180S2
327GND              C21   -2          A01X+007144Y+008701X0354Y0374R180S2
327/USB-C/USB-C_P   R8    -1          A01X+013898Y+014734X0315Y0374R090S2
327USB_P            R8    -2          A01X+013898Y+014085X0315Y0374R090S2
327LTERS/HALL2_IN   C54   -1          A01X+009980Y+002638X0354Y0374R000S2
327GND              C54   -2          A01X+010591Y+002638X0354Y0374R000S2
327GND              R22   -1          A01X+019173Y+011939X0315Y0374R090S2
327_DRIVER/RT_CLK   R22   -2          A01X+019173Y+011289X0315Y0374R090S2
327M_H3             R46   -1          A01X+031604Y+007382X0315Y0374R000S2
327MOSFET/M_H3_RG   R46   -2          A01X+032254Y+007382X0315Y0374R000S2
327GND              U2    -1          A01X+017126Y+018248X0787Y0591R000S2
327EP_DOWN/P3V3_I   U2    -2          A01X+017126Y+017343X0787Y0591R000S2
327EP_DOWN/P3V3_I   U2    -2          A01X+019606Y+017343X0787Y1496R000S2
327P5V              U2    -3          A01X+017126Y+016437X0787Y0591R000S2
327P3V3             C56   -1          A01X+008327Y+003907X0354Y0374R270S2
327GND              C56   -2          A01X+008327Y+004518X0354Y0374R270S2
327+VDC             C41   -1          A01X+020524Y+011033X0354Y0374R270S2
327GND              C41   -2          A01X+020524Y+011644X0354Y0374R270S2
317MOSFET/PHASE_3   J9    -1    D0581PA00X+033638Y+006248X0709Y0000R000S0
317MOSFET/PHASE_3   J9    -2    D0581PA00X+034638Y+006248X0709Y0000R000S0
317MOSFET/PHASE_3   J9    -3    D0581PA00X+035638Y+006248X0709Y0000R000S0
317MOSFET/PHASE_3   J9    -4    D0581PA00X+036638Y+006248X0709Y0000R000S0
317MOSFET/PHASE_3   J9    -5    D0581PA00X+036638Y+003248X0709Y0000R000S0
317MOSFET/PHASE_3   J9    -6    D0581PA00X+035638Y+003248X0709Y0000R000S0
317MOSFET/PHASE_3   J9    -7    D0581PA00X+034638Y+003248X0709Y0000R000S0
317MOSFET/PHASE_3   J9    -8    D0581PA00X+033638Y+003248X0709Y0000R000S0
327SENS2            R31   -1          A01X+033776Y+008362X0315Y0374R000S2
327GND              R31   -2          A01X+034425Y+008362X0315Y0374R000S2
327P3V3             R53   -1          A01X+008327Y+003228X0315Y0374R000S2
327LTERS/HALL1_IN   R53   -2          A01X+008976Y+003228X0315Y0374R000S2
327ILTERS/TEMP_IN   R60   -1          A01X+007293Y+003888X0315Y0374R270S2
327TEMP_MOTOR       R60   -2          A01X+007293Y+004537X0315Y0374R270S2
327+VDC             C40   -1          A01X+019941Y+011033X0354Y0374R270S2
327GND              C40   -2          A01X+019941Y+011644X0354Y0374R270S2
327MOSFET/PHASE_1   Q1    -1          A01X+032252Y+017778X0500Y0240R180S2
327MOSFET/PHASE_1   Q1    -2          A01X+032252Y+018278X0500Y0240R180S2
327MOSFET/PHASE_1   Q1    -3          A01X+032252Y+018778X0500Y0240R180S2
327MOSFET/M_H1_RG   Q1    -4          A01X+032252Y+019278X0500Y0240R180S2
327+VDC             Q1    -5          A01X+030929Y+018528X1500Y1539R180S2
327+VDC             Q1    -5          A01X+030100Y+017778X0402Y0240R180S2
327+VDC             Q1    -5          A01X+030100Y+018278X0402Y0240R180S2
327+VDC             Q1    -5          A01X+030100Y+018778X0402Y0240R180S2
327+VDC             Q1    -5          A01X+030100Y+019278X0402Y0240R180S2
327ET_DRIVER/BIAS   R25   -1          A01X+023622Y+009075X0315Y0374R000S2
327GND              R25   -2          A01X+024272Y+009075X0315Y0374R000S2
327HANICAL/NODE10   R61   -1          A01X+001644Y+025591X0315Y0374R000S2
327GND              R61   -2          A01X+002293Y+025591X0315Y0374R000S2
327P3V3             C16   -1          A01X+013935Y+012175X0354Y0374R270S2
327GND              C16   -2          A01X+013935Y+012785X0354Y0374R270S2
327MOSFET/PHASE_2   Q3    -1          A01X+032252Y+011478X0500Y0240R180S2
327MOSFET/PHASE_2   Q3    -2          A01X+032252Y+011978X0500Y0240R180S2
327MOSFET/PHASE_2   Q3    -3          A01X+032252Y+012478X0500Y0240R180S2
327MOSFET/M_H2_RG   Q3    -4          A01X+032252Y+012978X0500Y0240R180S2
327+VDC             Q3    -5          A01X+030929Y+012228X1500Y1539R180S2
327+VDC             Q3    -5          A01X+030100Y+011478X0402Y0240R180S2
327+VDC             Q3    -5          A01X+030100Y+011978X0402Y0240R180S2
327+VDC             Q3    -5          A01X+030100Y+012478X0402Y0240R180S2
327+VDC             Q3    -5          A01X+030100Y+012978X0402Y0240R180S2
327MOSFET/M_L2_RG   R42   -1          A01X+030163Y+008071X0315Y0374R000S2
327GND              R42   -2          A01X+030813Y+008071X0315Y0374R000S2
327/MCU/NRST        C18   -1          A01X+007754Y+009409X0354Y0374R180S2
327GND              C18   -2          A01X+007144Y+009409X0354Y0374R180S2
327/CAN/R_CAN_N     R51   -1          A01X+005443Y+019419X0315Y0374R180S2
327CAN/CONN_CAN_N   R51   -2          A01X+004793Y+019419X0315Y0374R180S2
327/MCU/ADC_TEMP    TH1   -1          A01X+003711Y+002402X0315Y0374R000S2
327GND              TH1   -2          A01X+004360Y+002402X0315Y0374R000S2
327ET_DRIVER/COMP   C27   -1          A01X+018533Y+010827X0354Y0374R180S2
327GND              C27   -2          A01X+017923Y+010827X0354Y0374R180S2
327P3V3             U3    -1          A01X+009222Y+011594X0610Y0118R000S2
327(U3-PC13-PAD2)   U3    -2          A01X+009222Y+011398X0610Y0118R000S2
327(U3-PC14-PAD3)   U3    -3          A01X+009222Y+011201X0610Y0118R000S2
327(U3-PC15-PAD4)   U3    -4          A01X+009222Y+011004X0610Y0118R000S2
327/MCU/PH0_P       U3    -5          A01X+009222Y+010807X0610Y0118R000S2
327/MCU/PH1_P       U3    -6          A01X+009222Y+010610X0610Y0118R000S2
327/MCU/NRST        U3    -7          A01X+009222Y+010413X0610Y0118R000S2
327TEMP_MOTOR       U3    -8          A01X+009222Y+010217X0610Y0118R000S2
327-(U3-PC1-PAD9)   U3    -9          A01X+009222Y+010020X0610Y0118R000S2
327/MCU/AN_IN       U3    -10         A01X+009222Y+009823X0610Y0118R000S2
327(U3-PC3-PAD11)   U3    -11         A01X+009222Y+009626X0610Y0118R000S2
327GND              U3    -12         A01X+009222Y+009429X0610Y0118R000S2
327/MCU/P3V3_A      U3    -13         A01X+009222Y+009232X0610Y0118R000S2
327SENS1            U3    -14         A01X+009222Y+009035X0610Y0118R000S2
327SENS2            U3    -15         A01X+009222Y+008839X0610Y0118R000S2
327SENS3            U3    -16         A01X+009222Y+008642X0610Y0118R000S2
327/MCU/ADC_TEMP    U3    -17         A01X+009980Y+007884X0118Y0610R000S2
327GND              U3    -18         A01X+010177Y+007884X0118Y0610R000S2
327P3V3             U3    -19         A01X+010374Y+007884X0118Y0610R000S2
327MCU/RX_SDA_NSS   U3    -20         A01X+010571Y+007884X0118Y0610R000S2
327CU/SCK_ADC_EXT   U3    -21         A01X+010768Y+007884X0118Y0610R000S2
327/MISO_ADC_EXT2   U3    -22         A01X+010965Y+007884X0118Y0610R000S2
327CU/TX_SCL_MOSI   U3    -23         A01X+011161Y+007884X0118Y0610R000S2
327/MCU/LED_GREEN   U3    -24         A01X+011358Y+007884X0118Y0610R000S2
327/MCU/LED_RED     U3    -25         A01X+011555Y+007884X0118Y0610R000S2
327BR_SO2           U3    -26         A01X+011752Y+007884X0118Y0610R000S2
327BR_SO1           U3    -27         A01X+011949Y+007884X0118Y0610R000S2
327(U3-PB2-PAD28)   U3    -28         A01X+012146Y+007884X0118Y0610R000S2
327CU/TX_SCL_MOSI   U3    -29         A01X+012343Y+007884X0118Y0610R000S2
327MCU/RX_SDA_NSS   U3    -30         A01X+012539Y+007884X0118Y0610R000S2
327/MCU/VCAP_1      U3    -31         A01X+012736Y+007884X0118Y0610R000S2
327P3V3             U3    -32         A01X+012933Y+007884X0118Y0610R000S2
327DC_CAL           U3    -33         A01X+013691Y+008642X0610Y0118R000S2
327L3               U3    -34         A01X+013691Y+008839X0610Y0118R000S2
327L2               U3    -35         A01X+013691Y+009035X0610Y0118R000S2
327L1               U3    -36         A01X+013691Y+009232X0610Y0118R000S2
327MCU/RX_SDA_NSS   U3    -37         A01X+013691Y+009429X0610Y0118R000S2
327CU/TX_SCL_MOSI   U3    -38         A01X+013691Y+009626X0610Y0118R000S2
327(U3-PC8-PAD39)   U3    -39         A01X+013691Y+009823X0610Y0118R000S2
327(U3-PC9-PAD40)   U3    -40         A01X+013691Y+010020X0610Y0118R000S2
327H3               U3    -41         A01X+013691Y+010217X0610Y0118R000S2
327H2               U3    -42         A01X+013691Y+010413X0610Y0118R000S2
327H1               U3    -43         A01X+013691Y+010610X0610Y0118R000S2
327USB_N            U3    -44         A01X+013691Y+010807X0610Y0118R000S2
327USB_P            U3    -45         A01X+013691Y+011004X0610Y0118R000S2
327/MCU/SWDIO       U3    -46         A01X+013691Y+011201X0610Y0118R000S2
327/MCU/VCAP_2      U3    -47         A01X+013691Y+011398X0610Y0118R000S2
327P3V3             U3    -48         A01X+013691Y+011594X0610Y0118R000S2
327/MCU/SWCLK       U3    -49         A01X+012933Y+012352X0118Y0610R000S2
327U3-PA15-PAD50)   U3    -50         A01X+012736Y+012352X0118Y0610R000S2
327EN_GATE          U3    -51         A01X+012539Y+012352X0118Y0610R000S2
327HALL_3_OUT       U3    -52         A01X+012343Y+012352X0118Y0610R000S2
327FAULT            U3    -53         A01X+012146Y+012352X0118Y0610R000S2
327(U3-PD2-PAD54)   U3    -54         A01X+011949Y+012352X0118Y0610R000S2
327(U3-PB3-PAD55)   U3    -55         A01X+011752Y+012352X0118Y0610R000S2
327(U3-PB4-PAD56)   U3    -56         A01X+011555Y+012352X0118Y0610R000S2
327/MCU/SERVO       U3    -57         A01X+011358Y+012352X0118Y0610R000S2
327HALL_2_OUT       U3    -58         A01X+011161Y+012352X0118Y0610R000S2
327HALL_1_OUT       U3    -59         A01X+010965Y+012352X0118Y0610R000S2
327/MCU/BOOT_P      U3    -60         A01X+010768Y+012352X0118Y0610R000S2
327CAN_TXRX_N       U3    -61         A01X+010571Y+012352X0118Y0610R000S2
327CAN_TXRX_P       U3    -62         A01X+010374Y+012352X0118Y0610R000S2
327GND              U3    -63         A01X+010177Y+012352X0118Y0610R000S2
327P3V3             U3    -64         A01X+009980Y+012352X0118Y0610R000S2
327GND              R24   -1          A01X+017510Y+008563X0315Y0374R000S2
327FET_DRIVER/DTC   R24   -2          A01X+018159Y+008563X0315Y0374R000S2
327_DRIVER/VSENSE   R27   -1          A01X+017181Y+011703X0315Y0374R270S2
327GND              R27   -2          A01X+017181Y+012352X0315Y0374R270S2
327GND              D3    -1          A01X+018327Y+015276X0492Y0689R180S2
327TEP_DOWN/NODE2   D3    -2          A01X+017224Y+015276X0492Y0689R180S2
327P3V3             R13   -1          A01X+004360Y+003150X0315Y0374R180S2
327/MCU/ADC_TEMP    R13   -2          A01X+003711Y+003150X0315Y0374R180S2
327/MCU/PH_1        Y1    -1          A01X+006260Y+010614X0790Y0800R180S2
327/MCU/PH_0        Y1    -2          A01X+006260Y+011964X0790Y0800R180S2
327P3V3             C11   -1          A01X+009004Y+013622X0354Y0374R180S2
327GND              C11   -2          A01X+008394Y+013622X0354Y0374R180S2
327_DRIVER/BST_BK   C35   -1          A01X+023671Y+010404X0354Y0374R090S2
327SFET_DRIVER/PH   C35   -2          A01X+023671Y+009793X0354Y0374R090S2
367N/C              J2          D0236UA00X+020193Y+025283X0236Y0000R180S0
367N/C              J2          D0236UA00X+017917Y+025283X0236Y0000R180S0
327GND              J2    -A1_B       A01X+020315Y+024862X0236Y0449R180S3
327VBUS             J2    -A4_B       A01X+020000Y+024862X0236Y0449R180S3
327/USB-C/CC1       J2    -A5         A01X+019547Y+024862X0118Y0449R180S3
327/USB-C/USB-C_P   J2    -A6         A01X+019154Y+024862X0118Y0449R180S3
327/USB-C/USB-C_N   J2    -A7         A01X+018957Y+024862X0118Y0449R180S3
327J2-SBU1-PADA8)   J2    -A8         A01X+018563Y+024862X0118Y0449R180S3
327GND              J2    -B1_A       A01X+017795Y+024862X0236Y0449R180S3
327VBUS             J2    -B4_A       A01X+018110Y+024862X0236Y0449R180S3
327/USB-C/CC2       J2    -B5         A01X+018366Y+024862X0118Y0449R180S3
327/USB-C/USB-C_P   J2    -B6         A01X+018760Y+024862X0118Y0449R180S3
327/USB-C/USB-C_N   J2    -B7         A01X+019350Y+024862X0118Y0449R180S3
327J2-SBU2-PADB8)   J2    -B8         A01X+019744Y+024862X0118Y0449R180S3
317B-C/SHIELD_USB   J2    -S1   D0236PA00X+020758Y+025091X0354Y0787R180S0
317B-C/SHIELD_USB   J2    -S2   D0236PA00X+017352Y+025091X0354Y0787R180S0
317B-C/SHIELD_USB   J2    -S3   D0236PA00X+020758Y+026732X0354Y0669R180S0
317B-C/SHIELD_USB   J2    -S4   D0236PA00X+017352Y+026732X0354Y0669R180S0
327B-C/SHIELD_USB   R2    -1          A01X+016772Y+025925X0315Y0374R180S2
327GND              R2    -2          A01X+016122Y+025925X0315Y0374R180S2
327/CAN/R_CAN_N     L2    -1          A01X+006476Y+019594X0787Y0472R000S2
327/CAN/R_CAN_P     L2    -2          A01X+006476Y+018594X0787Y0472R000S2
327/CAN/CAN_P       L2    -3          A01X+009429Y+018594X0787Y0472R000S2
327/CAN/CAN_N       L2    -4          A01X+009429Y+019594X0787Y0472R000S2
327/MCU/NODE4       R14   -1          A01X+005512Y+016191X0315Y0374R090S2
327GND              R14   -2          A01X+005512Y+015541X0315Y0374R090S2
327MOSFET/M_L1_RG   R36   -1          A01X+030163Y+014370X0315Y0374R000S2
327GND              R36   -2          A01X+030813Y+014370X0315Y0374R000S2
327/MCU/P3V3_COM    D6    -1          A01X+002559Y+013189X0236Y0236R000S3
327GND              D6    -2          A01X+003425Y+013189X0236Y0236R000S3
327/USB-C/CC2       U1    -1          A01X+018661Y+023144X0248Y0118R270S3
327GND              U1    -2          A01X+018858Y+023144X0248Y0118R270S3
327VBUS             U1    -3          A01X+019055Y+023144X0248Y0118R270S3
327/USB-C/CC1       U1    -4          A01X+019252Y+023144X0248Y0118R270S3
327VBUS             U1    -5          A01X+019154Y+023470X0248Y0118R270S3
327/USB-C/USB-C_N   U1    -6          A01X+018957Y+023470X0248Y0118R270S3
327/USB-C/USB-C_P   U1    -7          A01X+018760Y+023470X0248Y0118R270S3
327P3V3             R23   -1          A01X+017510Y+009252X0315Y0374R000S2
327FAULT            R23   -2          A01X+018159Y+009252X0315Y0374R000S2
327P3V3             R55   -1          A01X+012254Y+003228X0315Y0374R180S2
327LTERS/HALL3_IN   R55   -2          A01X+011604Y+003228X0315Y0374R180S2
327HANICAL/NODE12   R62   -1          A01X+001644Y+000000X0315Y0374R000S2
327GND              R62   -2          A01X+002293Y+000000X0315Y0374R000S2
327H1_LOW           R39   -1          A01X+028260Y+015754X0961Y2205R180S2
327GND              R39   -2          A01X+026307Y+015754X0961Y2205R180S2
327/MOSFET/SH1_N    R39   -3          A01X+028260Y+014126X0961Y0350R180S2
327/MOSFET/SH1_P    R39   -4          A01X+026307Y+014126X0961Y0350R180S2
327FET_DRIVER/CP1   C30   -1          A01X+017530Y+005384X0354Y0374R000S2
327FET_DRIVER/CP2   C30   -2          A01X+018140Y+005384X0354Y0374R000S2
327P3V3             C50   -1          A01X+013404Y+019341X0354Y0374R090S2
327GND              C50   -2          A01X+013404Y+018730X0354Y0374R090S2
327/MCU/P3V3_A      FB1   -1          A01X+007159Y+007520X0394Y0382R000S2
327P3V3             FB1   -2          A01X+007738Y+007520X0394Y0382R000S2
317HANICAL/NODE10   MH1   -1    D0197PA00X-000886Y+025591X0315Y0000R000S0
317HANICAL/NODE10   MH1   -1    D0197PA00X-000626Y+026217X0315Y0000R000S0
317HANICAL/NODE10   MH1   -1    D0197PA00X-000626Y+024964X0315Y0000R000S0
317HANICAL/NODE10   MH1   -1    D0197PA00X+000000Y+026476X0315Y0000R000S0
317HANICAL/NODE10   MH1   -1    D1181PA00X+000000Y+025591X2362Y0000R000S0
317HANICAL/NODE10   MH1   -1    D0197PA00X+000000Y+024705X0315Y0000R000S0
317HANICAL/NODE10   MH1   -1    D0197PA00X+000626Y+026217X0315Y0000R000S0
317HANICAL/NODE10   MH1   -1    D0197PA00X+000626Y+024964X0315Y0000R000S0
317HANICAL/NODE10   MH1   -1    D0197PA00X+000886Y+025591X0315Y0000R000S0
327LTERS/HALL3_IN   C55   -1          A01X+011624Y+002638X0354Y0374R000S2
327GND              C55   -2          A01X+012234Y+002638X0354Y0374R000S2
317HANICAL/NODE11   MH2   -1    D0197PA00X+034547Y+025591X0315Y0000R000S0
317HANICAL/NODE11   MH2   -1    D0197PA00X+034807Y+026217X0315Y0000R000S0
317HANICAL/NODE11   MH2   -1    D0197PA00X+034807Y+024964X0315Y0000R000S0
317HANICAL/NODE11   MH2   -1    D0197PA00X+035433Y+026476X0315Y0000R000S0
317HANICAL/NODE11   MH2   -1    D1181PA00X+035433Y+025591X2362Y0000R000S0
317HANICAL/NODE11   MH2   -1    D0197PA00X+035433Y+024705X0315Y0000R000S0
317HANICAL/NODE11   MH2   -1    D0197PA00X+036059Y+026217X0315Y0000R000S0
317HANICAL/NODE11   MH2   -1    D0197PA00X+036059Y+024964X0315Y0000R000S0
317HANICAL/NODE11   MH2   -1    D0197PA00X+036319Y+025591X0315Y0000R000S0
327H3_VS            NT4   -1          A01X+033297Y+001476X0197Y0000R180S3
327MOSFET/PHASE_3   NT4   -2          A01X+032904Y+001476X0197Y0000R180S3
327MOSFET/M_L3_RG   R48   -1          A01X+030163Y+001772X0315Y0374R000S2
327GND              R48   -2          A01X+030813Y+001772X0315Y0374R000S2
